{
  "abi": [
    {
      "type": "constructor",
      "inputs": [
        {
          "name": "_collateral",
          "type": "address",
          "internalType": "address"
        },
        {
          "name": "_ctf",
          "type": "address",
          "internalType": "address"
        }
      ],
      "stateMutability": "nonpayable"
    },
    {
      "type": "function",
      "name": "addAdmin",
      "inputs": [
        {
          "name": "admin_",
          "type": "address",
          "internalType": "address"
        }
      ],
      "outputs": [],
      "stateMutability": "nonpayable"
    },
    {
      "type": "function",
      "name": "addOperator",
      "inputs": [
        {
          "name": "operator_",
          "type": "address",
          "internalType": "address"
        }
      ],
      "outputs": [],
      "stateMutability": "nonpayable"
    },
    {
      "type": "function",
      "name": "admins",
      "inputs": [
        {
          "name": "",
          "type": "address",
          "internalType": "address"
        }
      ],
      "outputs": [
        {
          "name": "",
          "type": "uint256",
          "internalType": "uint256"
        }
      ],
      "stateMutability": "view"
    },
    {
      "type": "function",
      "name": "cancelOrder",
      "inputs": [
        {
          "name": "order",
          "type": "tuple",
          "internalType": "struct Order",
          "components": [
            {
              "name": "salt",
              "type": "uint256",
              "internalType": "uint256"
            },
            {
              "name": "maker",
              "type": "address",
              "internalType": "address"
            },
            {
              "name": "signer",
              "type": "address",
              "internalType": "address"
            },
            {
              "name": "taker",
              "type": "address",
              "internalType": "address"
            },
            {
              "name": "tokenId",
              "type": "uint256",
              "internalType": "uint256"
            },
            {
              "name": "makerAmount",
              "type": "uint256",
              "internalType": "uint256"
            },
            {
              "name": "takerAmount",
              "type": "uint256",
              "internalType": "uint256"
            },
            {
              "name": "expiration",
              "type": "uint256",
              "internalType": "uint256"
            },
            {
              "name": "nonce",
              "type": "uint256",
              "internalType": "uint256"
            },
            {
              "name": "feeRateBps",
              "type": "uint256",
              "internalType": "uint256"
            },
            {
              "name": "side",
              "type": "uint8",
              "internalType": "enum Side"
            },
            {
              "name": "signatureType",
              "type": "uint8",
              "internalType": "enum SignatureType"
            },
            {
              "name": "signature",
              "type": "bytes",
              "internalType": "bytes"
            }
          ]
        }
      ],
      "outputs": [],
      "stateMutability": "nonpayable"
    },
    {
      "type": "function",
      "name": "cancelOrders",
      "inputs": [
        {
          "name": "orders",
          "type": "tuple[]",
          "internalType": "struct Order[]",
          "components": [
            {
              "name": "salt",
              "type": "uint256",
              "internalType": "uint256"
            },
            {
              "name": "maker",
              "type": "address",
              "internalType": "address"
            },
            {
              "name": "signer",
              "type": "address",
              "internalType": "address"
            },
            {
              "name": "taker",
              "type": "address",
              "internalType": "address"
            },
            {
              "name": "tokenId",
              "type": "uint256",
              "internalType": "uint256"
            },
            {
              "name": "makerAmount",
              "type": "uint256",
              "internalType": "uint256"
            },
            {
              "name": "takerAmount",
              "type": "uint256",
              "internalType": "uint256"
            },
            {
              "name": "expiration",
              "type": "uint256",
              "internalType": "uint256"
            },
            {
              "name": "nonce",
              "type": "uint256",
              "internalType": "uint256"
            },
            {
              "name": "feeRateBps",
              "type": "uint256",
              "internalType": "uint256"
            },
            {
              "name": "side",
              "type": "uint8",
              "internalType": "enum Side"
            },
            {
              "name": "signatureType",
              "type": "uint8",
              "internalType": "enum SignatureType"
            },
            {
              "name": "signature",
              "type": "bytes",
              "internalType": "bytes"
            }
          ]
        }
      ],
      "outputs": [],
      "stateMutability": "nonpayable"
    },
    {
      "type": "function",
      "name": "domainSeparator",
      "inputs": [],
      "outputs": [
        {
          "name": "",
          "type": "bytes32",
          "internalType": "bytes32"
        }
      ],
      "stateMutability": "view"
    },
    {
      "type": "function",
      "name": "eip712Domain",
      "inputs": [],
      "outputs": [
        {
          "name": "fields",
          "type": "bytes1",
          "internalType": "bytes1"
        },
        {
          "name": "name",
          "type": "string",
          "internalType": "string"
        },
        {
          "name": "version",
          "type": "string",
          "internalType": "string"
        },
        {
          "name": "chainId",
          "type": "uint256",
          "internalType": "uint256"
        },
        {
          "name": "verifyingContract",
          "type": "address",
          "internalType": "address"
        },
        {
          "name": "salt",
          "type": "bytes32",
          "internalType": "bytes32"
        },
        {
          "name": "extensions",
          "type": "uint256[]",
          "internalType": "uint256[]"
        }
      ],
      "stateMutability": "view"
    },
    {
      "type": "function",
      "name": "fillOrder",
      "inputs": [
        {
          "name": "order",
          "type": "tuple",
          "internalType": "struct Order",
          "components": [
            {
              "name": "salt",
              "type": "uint256",
              "internalType": "uint256"
            },
            {
              "name": "maker",
              "type": "address",
              "internalType": "address"
            },
            {
              "name": "signer",
              "type": "address",
              "internalType": "address"
            },
            {
              "name": "taker",
              "type": "address",
              "internalType": "address"
            },
            {
              "name": "tokenId",
              "type": "uint256",
              "internalType": "uint256"
            },
            {
              "name": "makerAmount",
              "type": "uint256",
              "internalType": "uint256"
            },
            {
              "name": "takerAmount",
              "type": "uint256",
              "internalType": "uint256"
            },
            {
              "name": "expiration",
              "type": "uint256",
              "internalType": "uint256"
            },
            {
              "name": "nonce",
              "type": "uint256",
              "internalType": "uint256"
            },
            {
              "name": "feeRateBps",
              "type": "uint256",
              "internalType": "uint256"
            },
            {
              "name": "side",
              "type": "uint8",
              "internalType": "enum Side"
            },
            {
              "name": "signatureType",
              "type": "uint8",
              "internalType": "enum SignatureType"
            },
            {
              "name": "signature",
              "type": "bytes",
              "internalType": "bytes"
            }
          ]
        },
        {
          "name": "fillAmount",
          "type": "uint256",
          "internalType": "uint256"
        }
      ],
      "outputs": [],
      "stateMutability": "nonpayable"
    },
    {
      "type": "function",
      "name": "fillOrders",
      "inputs": [
        {
          "name": "orders",
          "type": "tuple[]",
          "internalType": "struct Order[]",
          "components": [
            {
              "name": "salt",
              "type": "uint256",
              "internalType": "uint256"
            },
            {
              "name": "maker",
              "type": "address",
              "internalType": "address"
            },
            {
              "name": "signer",
              "type": "address",
              "internalType": "address"
            },
            {
              "name": "taker",
              "type": "address",
              "internalType": "address"
            },
            {
              "name": "tokenId",
              "type": "uint256",
              "internalType": "uint256"
            },
            {
              "name": "makerAmount",
              "type": "uint256",
              "internalType": "uint256"
            },
            {
              "name": "takerAmount",
              "type": "uint256",
              "internalType": "uint256"
            },
            {
              "name": "expiration",
              "type": "uint256",
              "internalType": "uint256"
            },
            {
              "name": "nonce",
              "type": "uint256",
              "internalType": "uint256"
            },
            {
              "name": "feeRateBps",
              "type": "uint256",
              "internalType": "uint256"
            },
            {
              "name": "side",
              "type": "uint8",
              "internalType": "enum Side"
            },
            {
              "name": "signatureType",
              "type": "uint8",
              "internalType": "enum SignatureType"
            },
            {
              "name": "signature",
              "type": "bytes",
              "internalType": "bytes"
            }
          ]
        },
        {
          "name": "fillAmounts",
          "type": "uint256[]",
          "internalType": "uint256[]"
        }
      ],
      "outputs": [],
      "stateMutability": "nonpayable"
    },
    {
      "type": "function",
      "name": "getCollateral",
      "inputs": [],
      "outputs": [
        {
          "name": "",
          "type": "address",
          "internalType": "address"
        }
      ],
      "stateMutability": "view"
    },
    {
      "type": "function",
      "name": "getComplement",
      "inputs": [
        {
          "name": "token",
          "type": "uint256",
          "internalType": "uint256"
        }
      ],
      "outputs": [
        {
          "name": "",
          "type": "uint256",
          "internalType": "uint256"
        }
      ],
      "stateMutability": "view"
    },
    {
      "type": "function",
      "name": "getConditionId",
      "inputs": [
        {
          "name": "token",
          "type": "uint256",
          "internalType": "uint256"
        }
      ],
      "outputs": [
        {
          "name": "",
          "type": "bytes32",
          "internalType": "bytes32"
        }
      ],
      "stateMutability": "view"
    },
    {
      "type": "function",
      "name": "getCtf",
      "inputs": [],
      "outputs": [
        {
          "name": "",
          "type": "address",
          "internalType": "address"
        }
      ],
      "stateMutability": "view"
    },
    {
      "type": "function",
      "name": "getMaxFeeRate",
      "inputs": [],
      "outputs": [
        {
          "name": "",
          "type": "uint256",
          "internalType": "uint256"
        }
      ],
      "stateMutability": "pure"
    },
    {
      "type": "function",
      "name": "getOrderStatus",
      "inputs": [
        {
          "name": "orderHash",
          "type": "bytes32",
          "internalType": "bytes32"
        }
      ],
      "outputs": [
        {
          "name": "",
          "type": "tuple",
          "internalType": "struct OrderStatus",
          "components": [
            {
              "name": "isFilled",
              "type": "bool",
              "internalType": "bool"
            },
            {
              "name": "isCancelled",
              "type": "bool",
              "internalType": "bool"
            },
            {
              "name": "remaining",
              "type": "uint256",
              "internalType": "uint256"
            }
          ]
        }
      ],
      "stateMutability": "view"
    },
    {
      "type": "function",
      "name": "hashOrder",
      "inputs": [
        {
          "name": "order",
          "type": "tuple",
          "internalType": "struct Order",
          "components": [
            {
              "name": "salt",
              "type": "uint256",
              "internalType": "uint256"
            },
            {
              "name": "maker",
              "type": "address",
              "internalType": "address"
            },
            {
              "name": "signer",
              "type": "address",
              "internalType": "address"
            },
            {
              "name": "taker",
              "type": "address",
              "internalType": "address"
            },
            {
              "name": "tokenId",
              "type": "uint256",
              "internalType": "uint256"
            },
            {
              "name": "makerAmount",
              "type": "uint256",
              "internalType": "uint256"
            },
            {
              "name": "takerAmount",
              "type": "uint256",
              "internalType": "uint256"
            },
            {
              "name": "expiration",
              "type": "uint256",
              "internalType": "uint256"
            },
            {
              "name": "nonce",
              "type": "uint256",
              "internalType": "uint256"
            },
            {
              "name": "feeRateBps",
              "type": "uint256",
              "internalType": "uint256"
            },
            {
              "name": "side",
              "type": "uint8",
              "internalType": "enum Side"
            },
            {
              "name": "signatureType",
              "type": "uint8",
              "internalType": "enum SignatureType"
            },
            {
              "name": "signature",
              "type": "bytes",
              "internalType": "bytes"
            }
          ]
        }
      ],
      "outputs": [
        {
          "name": "",
          "type": "bytes32",
          "internalType": "bytes32"
        }
      ],
      "stateMutability": "view"
    },
    {
      "type": "function",
      "name": "incrementNonce",
      "inputs": [],
      "outputs": [],
      "stateMutability": "nonpayable"
    },
    {
      "type": "function",
      "name": "isAdmin",
      "inputs": [
        {
          "name": "usr",
          "type": "address",
          "internalType": "address"
        }
      ],
      "outputs": [
        {
          "name": "",
          "type": "bool",
          "internalType": "bool"
        }
      ],
      "stateMutability": "view"
    },
    {
      "type": "function",
      "name": "isOperator",
      "inputs": [
        {
          "name": "usr",
          "type": "address",
          "internalType": "address"
        }
      ],
      "outputs": [
        {
          "name": "",
          "type": "bool",
          "internalType": "bool"
        }
      ],
      "stateMutability": "view"
    },
    {
      "type": "function",
      "name": "isValidNonce",
      "inputs": [
        {
          "name": "usr",
          "type": "address",
          "internalType": "address"
        },
        {
          "name": "nonce",
          "type": "uint256",
          "internalType": "uint256"
        }
      ],
      "outputs": [
        {
          "name": "",
          "type": "bool",
          "internalType": "bool"
        }
      ],
      "stateMutability": "view"
    },
    {
      "type": "function",
      "name": "matchOrders",
      "inputs": [
        {
          "name": "takerOrder",
          "type": "tuple",
          "internalType": "struct Order",
          "components": [
            {
              "name": "salt",
              "type": "uint256",
              "internalType": "uint256"
            },
            {
              "name": "maker",
              "type": "address",
              "internalType": "address"
            },
            {
              "name": "signer",
              "type": "address",
              "internalType": "address"
            },
            {
              "name": "taker",
              "type": "address",
              "internalType": "address"
            },
            {
              "name": "tokenId",
              "type": "uint256",
              "internalType": "uint256"
            },
            {
              "name": "makerAmount",
              "type": "uint256",
              "internalType": "uint256"
            },
            {
              "name": "takerAmount",
              "type": "uint256",
              "internalType": "uint256"
            },
            {
              "name": "expiration",
              "type": "uint256",
              "internalType": "uint256"
            },
            {
              "name": "nonce",
              "type": "uint256",
              "internalType": "uint256"
            },
            {
              "name": "feeRateBps",
              "type": "uint256",
              "internalType": "uint256"
            },
            {
              "name": "side",
              "type": "uint8",
              "internalType": "enum Side"
            },
            {
              "name": "signatureType",
              "type": "uint8",
              "internalType": "enum SignatureType"
            },
            {
              "name": "signature",
              "type": "bytes",
              "internalType": "bytes"
            }
          ]
        },
        {
          "name": "makerOrders",
          "type": "tuple[]",
          "internalType": "struct Order[]",
          "components": [
            {
              "name": "salt",
              "type": "uint256",
              "internalType": "uint256"
            },
            {
              "name": "maker",
              "type": "address",
              "internalType": "address"
            },
            {
              "name": "signer",
              "type": "address",
              "internalType": "address"
            },
            {
              "name": "taker",
              "type": "address",
              "internalType": "address"
            },
            {
              "name": "tokenId",
              "type": "uint256",
              "internalType": "uint256"
            },
            {
              "name": "makerAmount",
              "type": "uint256",
              "internalType": "uint256"
            },
            {
              "name": "takerAmount",
              "type": "uint256",
              "internalType": "uint256"
            },
            {
              "name": "expiration",
              "type": "uint256",
              "internalType": "uint256"
            },
            {
              "name": "nonce",
              "type": "uint256",
              "internalType": "uint256"
            },
            {
              "name": "feeRateBps",
              "type": "uint256",
              "internalType": "uint256"
            },
            {
              "name": "side",
              "type": "uint8",
              "internalType": "enum Side"
            },
            {
              "name": "signatureType",
              "type": "uint8",
              "internalType": "enum SignatureType"
            },
            {
              "name": "signature",
              "type": "bytes",
              "internalType": "bytes"
            }
          ]
        },
        {
          "name": "takerFillAmount",
          "type": "uint256",
          "internalType": "uint256"
        },
        {
          "name": "makerFillAmounts",
          "type": "uint256[]",
          "internalType": "uint256[]"
        }
      ],
      "outputs": [],
      "stateMutability": "nonpayable"
    },
    {
      "type": "function",
      "name": "nonces",
      "inputs": [
        {
          "name": "",
          "type": "address",
          "internalType": "address"
        }
      ],
      "outputs": [
        {
          "name": "",
          "type": "uint256",
          "internalType": "uint256"
        }
      ],
      "stateMutability": "view"
    },
    {
      "type": "function",
      "name": "onERC1155BatchReceived",
      "inputs": [
        {
          "name": "",
          "type": "address",
          "internalType": "address"
        },
        {
          "name": "",
          "type": "address",
          "internalType": "address"
        },
        {
          "name": "",
          "type": "uint256[]",
          "internalType": "uint256[]"
        },
        {
          "name": "",
          "type": "uint256[]",
          "internalType": "uint256[]"
        },
        {
          "name": "",
          "type": "bytes",
          "internalType": "bytes"
        }
      ],
      "outputs": [
        {
          "name": "",
          "type": "bytes4",
          "internalType": "bytes4"
        }
      ],
      "stateMutability": "nonpayable"
    },
    {
      "type": "function",
      "name": "onERC1155Received",
      "inputs": [
        {
          "name": "",
          "type": "address",
          "internalType": "address"
        },
        {
          "name": "",
          "type": "address",
          "internalType": "address"
        },
        {
          "name": "",
          "type": "uint256",
          "internalType": "uint256"
        },
        {
          "name": "",
          "type": "uint256",
          "internalType": "uint256"
        },
        {
          "name": "",
          "type": "bytes",
          "internalType": "bytes"
        }
      ],
      "outputs": [
        {
          "name": "",
          "type": "bytes4",
          "internalType": "bytes4"
        }
      ],
      "stateMutability": "nonpayable"
    },
    {
      "type": "function",
      "name": "operators",
      "inputs": [
        {
          "name": "",
          "type": "address",
          "internalType": "address"
        }
      ],
      "outputs": [
        {
          "name": "",
          "type": "uint256",
          "internalType": "uint256"
        }
      ],
      "stateMutability": "view"
    },
    {
      "type": "function",
      "name": "orderStatus",
      "inputs": [
        {
          "name": "",
          "type": "bytes32",
          "internalType": "bytes32"
        }
      ],
      "outputs": [
        {
          "name": "isFilled",
          "type": "bool",
          "internalType": "bool"
        },
        {
          "name": "isCancelled",
          "type": "bool",
          "internalType": "bool"
        },
        {
          "name": "remaining",
          "type": "uint256",
          "internalType": "uint256"
        }
      ],
      "stateMutability": "view"
    },
    {
      "type": "function",
      "name": "parentCollectionId",
      "inputs": [],
      "outputs": [
        {
          "name": "",
          "type": "bytes32",
          "internalType": "bytes32"
        }
      ],
      "stateMutability": "view"
    },
    {
      "type": "function",
      "name": "pauseTrading",
      "inputs": [],
      "outputs": [],
      "stateMutability": "nonpayable"
    },
    {
      "type": "function",
      "name": "paused",
      "inputs": [],
      "outputs": [
        {
          "name": "",
          "type": "bool",
          "internalType": "bool"
        }
      ],
      "stateMutability": "view"
    },
    {
      "type": "function",
      "name": "registerToken",
      "inputs": [
        {
          "name": "token",
          "type": "uint256",
          "internalType": "uint256"
        },
        {
          "name": "complement",
          "type": "uint256",
          "internalType": "uint256"
        },
        {
          "name": "conditionId",
          "type": "bytes32",
          "internalType": "bytes32"
        }
      ],
      "outputs": [],
      "stateMutability": "nonpayable"
    },
    {
      "type": "function",
      "name": "registry",
      "inputs": [
        {
          "name": "",
          "type": "uint256",
          "internalType": "uint256"
        }
      ],
      "outputs": [
        {
          "name": "complement",
          "type": "uint256",
          "internalType": "uint256"
        },
        {
          "name": "conditionId",
          "type": "bytes32",
          "internalType": "bytes32"
        }
      ],
      "stateMutability": "view"
    },
    {
      "type": "function",
      "name": "removeAdmin",
      "inputs": [
        {
          "name": "admin",
          "type": "address",
          "internalType": "address"
        }
      ],
      "outputs": [],
      "stateMutability": "nonpayable"
    },
    {
      "type": "function",
      "name": "removeOperator",
      "inputs": [
        {
          "name": "operator",
          "type": "address",
          "internalType": "address"
        }
      ],
      "outputs": [],
      "stateMutability": "nonpayable"
    },
    {
      "type": "function",
      "name": "renounceAdminRole",
      "inputs": [],
      "outputs": [],
      "stateMutability": "nonpayable"
    },
    {
      "type": "function",
      "name": "renounceOperatorRole",
      "inputs": [],
      "outputs": [],
      "stateMutability": "nonpayable"
    },
    {
      "type": "function",
      "name": "supportsInterface",
      "inputs": [
        {
          "name": "interfaceId",
          "type": "bytes4",
          "internalType": "bytes4"
        }
      ],
      "outputs": [
        {
          "name": "",
          "type": "bool",
          "internalType": "bool"
        }
      ],
      "stateMutability": "view"
    },
    {
      "type": "function",
      "name": "unpauseTrading",
      "inputs": [],
      "outputs": [],
      "stateMutability": "nonpayable"
    },
    {
      "type": "function",
      "name": "validateComplement",
      "inputs": [
        {
          "name": "token",
          "type": "uint256",
          "internalType": "uint256"
        },
        {
          "name": "complement",
          "type": "uint256",
          "internalType": "uint256"
        }
      ],
      "outputs": [],
      "stateMutability": "view"
    },
    {
      "type": "function",
      "name": "validateOrder",
      "inputs": [
        {
          "name": "order",
          "type": "tuple",
          "internalType": "struct Order",
          "components": [
            {
              "name": "salt",
              "type": "uint256",
              "internalType": "uint256"
            },
            {
              "name": "maker",
              "type": "address",
              "internalType": "address"
            },
            {
              "name": "signer",
              "type": "address",
              "internalType": "address"
            },
            {
              "name": "taker",
              "type": "address",
              "internalType": "address"
            },
            {
              "name": "tokenId",
              "type": "uint256",
              "internalType": "uint256"
            },
            {
              "name": "makerAmount",
              "type": "uint256",
              "internalType": "uint256"
            },
            {
              "name": "takerAmount",
              "type": "uint256",
              "internalType": "uint256"
            },
            {
              "name": "expiration",
              "type": "uint256",
              "internalType": "uint256"
            },
            {
              "name": "nonce",
              "type": "uint256",
              "internalType": "uint256"
            },
            {
              "name": "feeRateBps",
              "type": "uint256",
              "internalType": "uint256"
            },
            {
              "name": "side",
              "type": "uint8",
              "internalType": "enum Side"
            },
            {
              "name": "signatureType",
              "type": "uint8",
              "internalType": "enum SignatureType"
            },
            {
              "name": "signature",
              "type": "bytes",
              "internalType": "bytes"
            }
          ]
        }
      ],
      "outputs": [],
      "stateMutability": "view"
    },
    {
      "type": "function",
      "name": "validateOrderSignature",
      "inputs": [
        {
          "name": "orderHash",
          "type": "bytes32",
          "internalType": "bytes32"
        },
        {
          "name": "order",
          "type": "tuple",
          "internalType": "struct Order",
          "components": [
            {
              "name": "salt",
              "type": "uint256",
              "internalType": "uint256"
            },
            {
              "name": "maker",
              "type": "address",
              "internalType": "address"
            },
            {
              "name": "signer",
              "type": "address",
              "internalType": "address"
            },
            {
              "name": "taker",
              "type": "address",
              "internalType": "address"
            },
            {
              "name": "tokenId",
              "type": "uint256",
              "internalType": "uint256"
            },
            {
              "name": "makerAmount",
              "type": "uint256",
              "internalType": "uint256"
            },
            {
              "name": "takerAmount",
              "type": "uint256",
              "internalType": "uint256"
            },
            {
              "name": "expiration",
              "type": "uint256",
              "internalType": "uint256"
            },
            {
              "name": "nonce",
              "type": "uint256",
              "internalType": "uint256"
            },
            {
              "name": "feeRateBps",
              "type": "uint256",
              "internalType": "uint256"
            },
            {
              "name": "side",
              "type": "uint8",
              "internalType": "enum Side"
            },
            {
              "name": "signatureType",
              "type": "uint8",
              "internalType": "enum SignatureType"
            },
            {
              "name": "signature",
              "type": "bytes",
              "internalType": "bytes"
            }
          ]
        }
      ],
      "outputs": [],
      "stateMutability": "view"
    },
    {
      "type": "function",
      "name": "validateTokenId",
      "inputs": [
        {
          "name": "tokenId",
          "type": "uint256",
          "internalType": "uint256"
        }
      ],
      "outputs": [],
      "stateMutability": "view"
    },
    {
      "type": "event",
      "name": "EIP712DomainChanged",
      "inputs": [],
      "anonymous": false
    },
    {
      "type": "event",
      "name": "FeeCharged",
      "inputs": [
        {
          "name": "receiver",
          "type": "address",
          "indexed": true,
          "internalType": "address"
        },
        {
          "name": "tokenId",
          "type": "uint256",
          "indexed": false,
          "internalType": "uint256"
        },
        {
          "name": "amount",
          "type": "uint256",
          "indexed": false,
          "internalType": "uint256"
        }
      ],
      "anonymous": false
    },
    {
      "type": "event",
      "name": "NewAdmin",
      "inputs": [
        {
          "name": "newAdminAddress",
          "type": "address",
          "indexed": true,
          "internalType": "address"
        },
        {
          "name": "admin",
          "type": "address",
          "indexed": true,
          "internalType": "address"
        }
      ],
      "anonymous": false
    },
    {
      "type": "event",
      "name": "NewOperator",
      "inputs": [
        {
          "name": "newOperatorAddress",
          "type": "address",
          "indexed": true,
          "internalType": "address"
        },
        {
          "name": "admin",
          "type": "address",
          "indexed": true,
          "internalType": "address"
        }
      ],
      "anonymous": false
    },
    {
      "type": "event",
      "name": "OrderCancelled",
      "inputs": [
        {
          "name": "orderHash",
          "type": "bytes32",
          "indexed": true,
          "internalType": "bytes32"
        }
      ],
      "anonymous": false
    },
    {
      "type": "event",
      "name": "OrderFilled",
      "inputs": [
        {
          "name": "orderHash",
          "type": "bytes32",
          "indexed": true,
          "internalType": "bytes32"
        },
        {
          "name": "maker",
          "type": "address",
          "indexed": true,
          "internalType": "address"
        },
        {
          "name": "taker",
          "type": "address",
          "indexed": true,
          "internalType": "address"
        },
        {
          "name": "makerAssetId",
          "type": "uint256",
          "indexed": false,
          "internalType": "uint256"
        },
        {
          "name": "takerAssetId",
          "type": "uint256",
          "indexed": false,
          "internalType": "uint256"
        },
        {
          "name": "makerAmountFilled",
          "type": "uint256",
          "indexed": false,
          "internalType": "uint256"
        },
        {
          "name": "takerAmountFilled",
          "type": "uint256",
          "indexed": false,
          "internalType": "uint256"
        },
        {
          "name": "fee",
          "type": "uint256",
          "indexed": false,
          "internalType": "uint256"
        }
      ],
      "anonymous": false
    },
    {
      "type": "event",
      "name": "OrdersMatched",
      "inputs": [
        {
          "name": "takerOrderHash",
          "type": "bytes32",
          "indexed": true,
          "internalType": "bytes32"
        },
        {
          "name": "takerOrderMaker",
          "type": "address",
          "indexed": true,
          "internalType": "address"
        },
        {
          "name": "makerAssetId",
          "type": "uint256",
          "indexed": false,
          "internalType": "uint256"
        },
        {
          "name": "takerAssetId",
          "type": "uint256",
          "indexed": false,
          "internalType": "uint256"
        },
        {
          "name": "makerAmountFilled",
          "type": "uint256",
          "indexed": false,
          "internalType": "uint256"
        },
        {
          "name": "takerAmountFilled",
          "type": "uint256",
          "indexed": false,
          "internalType": "uint256"
        }
      ],
      "anonymous": false
    },
    {
      "type": "event",
      "name": "RemovedAdmin",
      "inputs": [
        {
          "name": "removedAdmin",
          "type": "address",
          "indexed": true,
          "internalType": "address"
        },
        {
          "name": "admin",
          "type": "address",
          "indexed": true,
          "internalType": "address"
        }
      ],
      "anonymous": false
    },
    {
      "type": "event",
      "name": "RemovedOperator",
      "inputs": [
        {
          "name": "removedOperator",
          "type": "address",
          "indexed": true,
          "internalType": "address"
        },
        {
          "name": "admin",
          "type": "address",
          "indexed": true,
          "internalType": "address"
        }
      ],
      "anonymous": false
    },
    {
      "type": "event",
      "name": "TokenRegistered",
      "inputs": [
        {
          "name": "token0",
          "type": "uint256",
          "indexed": true,
          "internalType": "uint256"
        },
        {
          "name": "token1",
          "type": "uint256",
          "indexed": true,
          "internalType": "uint256"
        },
        {
          "name": "conditionId",
          "type": "bytes32",
          "indexed": true,
          "internalType": "bytes32"
        }
      ],
      "anonymous": false
    },
    {
      "type": "event",
      "name": "TradingPaused",
      "inputs": [
        {
          "name": "pauser",
          "type": "address",
          "indexed": true,
          "internalType": "address"
        }
      ],
      "anonymous": false
    },
    {
      "type": "event",
      "name": "TradingUnpaused",
      "inputs": [
        {
          "name": "pauser",
          "type": "address",
          "indexed": true,
          "internalType": "address"
        }
      ],
      "anonymous": false
    },
    {
      "type": "error",
      "name": "AlreadyRegistered",
      "inputs": []
    },
    {
      "type": "error",
      "name": "FeeTooHigh",
      "inputs": []
    },
    {
      "type": "error",
      "name": "InvalidComplement",
      "inputs": []
    },
    {
      "type": "error",
      "name": "InvalidNonce",
      "inputs": []
    },
    {
      "type": "error",
      "name": "InvalidShortString",
      "inputs": []
    },
    {
      "type": "error",
      "name": "InvalidSignature",
      "inputs": []
    },
    {
      "type": "error",
      "name": "InvalidTokenId",
      "inputs": []
    },
    {
      "type": "error",
      "name": "MakingGtRemaining",
      "inputs": []
    },
    {
      "type": "error",
      "name": "MismatchedTokenIds",
      "inputs": []
    },
    {
      "type": "error",
      "name": "NotAdmin",
      "inputs": []
    },
    {
      "type": "error",
      "name": "NotCrossing",
      "inputs": []
    },
    {
      "type": "error",
      "name": "NotOperator",
      "inputs": []
    },
    {
      "type": "error",
      "name": "NotOwner",
      "inputs": []
    },
    {
      "type": "error",
      "name": "NotTaker",
      "inputs": []
    },
    {
      "type": "error",
      "name": "OrderCancelledError",
      "inputs": []
    },
    {
      "type": "error",
      "name": "OrderExpired",
      "inputs": []
    },
    {
      "type": "error",
      "name": "OrderFilledError",
      "inputs": []
    },
    {
      "type": "error",
      "name": "Paused",
      "inputs": []
    },
    {
      "type": "error",
      "name": "ReentrancyGuardReentrantCall",
      "inputs": []
    },
    {
      "type": "error",
      "name": "StringTooLong",
      "inputs": [
        {
          "name": "str",
          "type": "string",
          "internalType": "string"
        }
      ]
    },
    {
      "type": "error",
      "name": "TooLittleTokensReceived",
      "inputs": []
    }
  ],
  "bytecode": {
    "object": "0x6101c08060405234610224576040816145528038038091610020828561023b565b8339810103126102245760208160446100448361003d5f96610272565b9301610272565b60405161005260408261023b565b601781528481017f506f6c796d61726b6574204354462045786368616e676500000000000000000081526040519061008b60408361023b565b6001825286820192603160f81b84526001895533895260018852600160408a205533895260028852600160408a20556100c3816102bb565b610120526100d083610456565b6101405251902060e052519020610100524660a0526100ed61058e565b6080523060c05261016083905261018081905260405163095ea7b360e01b81526001600160a01b039182166004820152851960248201529485938492165af18015610230576101f4575b60ff1960055416600555610149610286565b6101a052604051613f6590816105ed82396080518161326f015260a0518161332c015260c05181613239015260e051816132be015261010051816132e401526101205181611f2a01526101405181611f56015261016051818181612324015281816136be01528181613a6701528181613d200152613e2701526101805181818161253a01528181613619015281816139e901528181613cce0152613dd801526101a051816102dc0152f35b6020813d602011610228575b8161020d6020938361023b565b81010312610224575180151503610224575f610137565b5f80fd5b3d9150610200565b6040513d5f823e3d90fd5b601f909101601f19168101906001600160401b0382119082101761025e57604052565b634e487b7160e01b5f52604160045260245ffd5b51906001600160a01b038216820361022457565b60c0516001600160a01b03163014806102b0575b156102a55760805190565b6102ad61058e565b90565b5060a051461461029a565b908151602081105f14610335575090601f8151116102f55760208151910151602082106102e6571790565b5f198260200360031b1b161790565b604460209160405192839163305a27a960e01b83528160048401528051918291826024860152018484015e5f828201840152601f01601f19168101030190fd5b6001600160401b03811161025e57600354600181811c9116801561044c575b602082101461043857601f8111610405575b50602092601f82116001146103a457928192935f92610399575b50508160011b915f199060031b1c19161760035560ff90565b015190505f80610380565b601f1982169360035f52805f20915f5b8681106103ed57508360019596106103d5575b505050811b0160035560ff90565b01515f1960f88460031b161c191690555f80806103c7565b919260206001819286850151815501940192016103b4565b60035f52601f60205f20910160051c810190601f830160051c015b81811061042d5750610366565b5f8155600101610420565b634e487b7160e01b5f52602260045260245ffd5b90607f1690610354565b908151602081105f14610481575090601f8151116102f55760208151910151602082106102e6571790565b6001600160401b03811161025e57600454600181811c91168015610584575b602082101461043857601f8111610551575b50602092601f82116001146104f057928192935f926104e5575b50508160011b915f199060031b1c19161760045560ff90565b015190505f806104cc565b601f1982169360045f52805f20915f5b8681106105395750836001959610610521575b505050811b0160045560ff90565b01515f1960f88460031b161c191690555f8080610513565b91926020600181928685015181550194019201610500565b60045f52601f60205f20910160051c810190601f830160051c015b81811061057957506104b2565b5f815560010161056c565b90607f16906104a0565b60e051610100516040519060208201927f8b73c3c69bb8fe3d512ecc4cf759cc79239f7b179b0ffacaa9a75d522b39400f8452604083015260608201524660808201523060a082015260a081526105e660c08261023b565b5190209056fe6080806040526004361015610012575f80fd5b5f3560e01c90816301ffc9a71461274c575080630647ee20146127065780631031e36e146126ae57806313e7c9d8146126765780631785f53c1461260757806324d7806c146125cc5780632dff692d1461258557806334600901146125695780633b521d78146125255780633d6d3598146124cb578063429b62e51461249357806344bea37e14612479578063456068d21461242457806346423aa7146123a25780634a2a11f5146123865780635893253c146123535780635c1548fb1461230f5780635c975abb146122ed578063627cdcb9146122a0578063654f0ce41461225f57806368c7450f1461211f5780636d70f7ae146120e457806370480275146120755780637ecebe001461203d57806383b8a5ae14611fe357806384b0196e14611f125780639870d7fe14611ea2578063a10f3dce14611e84578063a6dfcf8614611e4c578063ac8a584a14611dce578063bc197c8114611d39578063d798eff614611c87578063d7fb272f14611c5c578063d82da83814611c3d578063e2eec40514611c0b578063e50e4f9714611bc9578063e60f0c0514610354578063f23a6e61146102ff578063f698da25146102c5578063fa950b481461026c5763fe729aaf146101df575f80fd5b34610268576040366003190112610268576004356001600160401b0381116102685761020f90369060040161289f565b610217612df3565b335f526002602052600160405f2054036102595760ff6005541661024a5761024490339060243590612f42565b60015f55005b6313d0ff5960e31b5f5260045ffd5b631f0853c160e21b5f5260045ffd5b5f80fd5b34610268576020366003190112610268576004356001600160401b0381116102685761029c903690600401612a60565b80515f5b8181106102a957005b806102bf6102b960019386612c81565b51612d7d565b016102a0565b34610268575f3660031901126102685760206040517f00000000000000000000000000000000000000000000000000000000000000008152f35b346102685760a03660031901126102685761031861279f565b506103216127b5565b506084356001600160401b0381116102685761034190369060040161284a565b5060405163f23a6e6160e01b8152602090f35b34610268576080366003190112610268576004356001600160401b0381116102685761038490369060040161289f565b6024356001600160401b038111610268576103a3903690600401612a60565b6044356064356001600160401b038111610268576103c5903690600401612a03565b6103cd612df3565b335f526002602052600160405f2054036102595760ff6005541661024a5760409261042c84516103fd8682612829565b602081527f3d3d3d3d3d3d204d41544348204f5244455253204445425547203d3d3d3d3d3d6020820152613352565b610461845161043b8682612829565b60148152732a30b5b2b91027b93232b9102232ba30b4b6399d60611b6020820152613352565b602085018051855161049b916001600160a01b0316906104818882612829565b6008815267101026b0b5b2b91d60c11b60208201526133a4565b60808601916104cd835187516104b18982612829565b600a81526910102a37b5b2b724b21d60b11b60208201526133f2565b610140870194855160028110156110e9578751906104eb8983612829565b6007825266101029b4b2329d60c91b6020830152610508916133f2565b60a088015187519061051a8983612829565b600e82526d101026b0b5b2b920b6b7bab73a1d60911b602083015261053e916133f2565b60c08801518751906105508983612829565b600e82526d10102a30b5b2b920b6b7bab73a1d60911b6020830152610574916133f2565b86516105808882612829565b6018815281602082017f20205265717565737465642046696c6c20416d6f756e743a000000000000000090526105b5916133f2565b86516105c18882612829565b601f81527f5374617274696e67206f72646572206d61746368696e672070726f636573730060208201526105f490613352565b6105fe8189613435565b97909361060a8a6135e9565b9a909683516106198582612829565b601781527f4f7264657220636865636b7320636f6d706c657465643a000000000000000000602082015261064c90613352565b83516106588582612829565b60098152856020820168101026b0b5b4b7339d60b91b9052610679916133f2565b83516106858582612829565b6009815287602082016810102a30b5b4b7339d60b91b90526106a6916133f2565b6060958c85516106b68982612829565b602181527f44657269766564206173736574204944733a206d616b657241737365744964206020820152603d60f81b878201528651916106f68884612829565b60108352602083016f2c2074616b657241737365744964203d60801b9052875192839263c67ea9d160e01b6020850152602484016080905260a4840161073b91612995565b8d604485015260231984820301606485015261075691612995565b90608483015203601f198101825261076e9082612829565b8051906020015a915f92916a636f6e736f6c652e6c6f678493fa5084516107958882612829565b603b81527f41626f757420746f207472616e7366657220746f6b656e732066726f6d20746160208201527f6b6572206f72646572206d616b657220746f2065786368616e67650000000000868201526107ed90613352565b83518551906001600160a01b03166108058783612829565b60078252661010233937b69d60c91b6020830152610822916133a4565b845161082e8682612829565b60058152602081016410102a379d60d91b90523061084b916133a4565b84516108578682612829565b600b815289602082016a101020b9b9b2ba1024a21d60a91b905261087a916133f2565b84516108868682612829565b60098152866020820168101020b6b7bab73a1d60b91b90526108a7916133f2565b8815998a1561194b578551635c1548fb60e01b81526020816004815f305af19081156115e9575f9161192c575b50855187516370a0823160e01b81526001600160a01b03918216600482015290821691602082602481865afa91821561153f575f926118f5575b5087518951636eb1769f60e11b81526001600160a01b03909116600482015230602482015292602090849060449082905afa92831561153f57908a9392915f936118ba575b509061098d84928b516109668d82612829565b6015815274101021b7b63630ba32b930b61030b2323932b9b99d60591b60208201526133a4565b6109cc818b5161099d8d82612829565b601d81527f20205072652d7472616e736665722045524332302062616c616e63653a00000060208201526133f2565b610a0b838b516109dc8d82612829565b601f81527f20205072652d7472616e7366657220455243323020616c6c6f77616e63653a0060208201526133f2565b10611877575b10611834575b60809a610a8c8c610a2a89519182612829565b604681527f5472616e7366657272696e672074616b65724f72646572206d616b696e67206160208201527f6d6f756e742066726f6d2074616b6572206f7264657220746f2074686520457889820152656368616e676560d01b8b820152613352565b85518751610ac8916001600160a01b031690610aa88a82612829565b600e81526d2a30b5b2a7b93232b926b0b5b2b960911b60208201526133a4565b610ad930610ad4612e48565b6133a4565b610aea8b610ae5612e71565b6133f2565b610af688610ae5612e9b565b85518751610b41916001600160a01b031690610b128a82612829565b601781527f41626f757420746f207472616e736665722066726f6d3a00000000000000000060208201526133a4565b156115f3578551635c1548fb60e01b81526020816004815f305af19081156115e9575f916115ba575b5086516370a0823160e01b81523060048201526001600160a01b039190911690602081602481855afa9081156115b0575f9161157e575b50865188516323b872dd60e01b81526001600160a01b039091166004820152306024820152604481018a9052916020836064815f855af192831561153f575f93611549575b5060206024918a51928380926370a0823160e01b82523060048301525afa90811561153f575f9161150d575b50821561150457610c5f60015b60ff8b5191610c2e8d84612829565b601983527f20204552433230207472616e7366657220737563636573733a00000000000000602084015216906133f2565b610c92828a51610c6f8c82612829565b601181527010102130b630b731b2903132b337b9329d60791b60208201526133f2565b610c9e8a610ae5612ebf565b610cd0818a51610cae8c82612829565b601081526f10102130b630b731b29030b33a32b91d60811b60208201526133f2565b818111156114f957610ced91610ce591612efa565b610ae5612f07565b156114b6575b610d288651610d028882612829565b601481527346696c6c696e67206d616b6572206f726465727360601b6020820152613352565b8151915f5b838110611113575050505050610d6d8351610d488582612829565b601381527213585ad95c881bdc99195c9cc8199a5b1b1959606a1b6020820152613352565b610d768b6139b9565b95610da8878551610d878782612829565b600f81526e020b1ba3ab0b61030b6b7bab73a1d1608d1b60208201526133f2565b610dda818551610db88782612829565b601081526f026b4b734b6bab69030b6b7bab73a1d160851b60208201526133f2565b8610610e07818551610dec8782612829565b600981526802932b9bab63a191d160bd1b6020820152613ac1565b61110457610120015197805160028110156110e9576110fd5785905b519060028210156110e9578a7fd0a08e8c493f9c94f29311604c9de1b4e8c8d4c06bd0c789af57f2d65bfec0f686610e838f94958b7f63bf4d16b7fa898ef4c4b2b6d90fd201e9c56313b65638af6088d149d2ce956c9f8e988591613851565b93610eb5858951610e948b82612829565b600f81526e21b0b631bab630ba32b2103332b29d60891b60208201526133f2565b610f318d610ec58a519182612829565b605081527f5472616e7366657272696e67206f726465722070726f636565647320706f737460208201527f20666565732066726f6d207468652045786368616e676520746f2074686520748a8201526f30b5b2b91037b93232b91036b0b5b2b960811b8c820152613352565b8651610f52906001600160a01b031682610f4b888f612efa565b913061360e565b610f998851610f618c82612829565b602181527f4368617267696e672066656520746f2074616b6572206f72646572206d616b656020820152603960f91b8a820152613352565b610fa58582333061395b565b610fae866139b9565b610fde818a51610fbe8c82612829565b600e81526d2932b33ab7321030b6b7bab73a1d60911b60208201526133f2565b8061107d575b506110238851610ff48a82612829565b601f81527f4f72646572206d61746368696e672070726f6365737320636f6d706c657465006020820152613352565b8651885196875260208701919091526040860191909152606085018a9052608085019390935230936001600160a01b039093169260a090a460018060a01b039051169881519586526020860152840152820152a360015f55005b6110e3906110d08c6110918c519182612829565b602881527f526566756e64696e67206c6566746f76657220746f6b656e7320746f2074616b60208201526732b91037b93232b960c11b8c820152613352565b885188906001600160a01b03163061360e565b5f610fe4565b634e487b7160e01b5f52602160045260245ffd5b8390610e23565b6301be9b0160e71b5f5260045ffd5b61111d8183612c81565b51906111298185612c81565b51916111358189613b7d565b9261113f84612b28565b61116b848c61115081519182612829565b60098152684d617463685479706560b81b60208201526133f2565b611175828a613bef565b156114a7578f61118485612b28565b8b85611490575088519083015103611481575f8b925b816111a58483613435565b9390956111d28782516111b88482612829565b600881526702a30b5b4b7339d160c51b60208201526133f2565b6111fe81516111e18382612829565b600b81526a027b93232b92430b9b41d160ad1b6020820152613352565b516327b7cf8560e01b602082015260248082018690528152611221604482612829565b6020815191016a636f6e736f6c652e6c6f675afa506101208101519061014081019081519260028410156110e9578f9361147a5786925b60a08301519060c084015190519160028310156110e95760209561127b94613851565b976113b4611288836135e9565b94909301946112fb60018060a01b03875116936112c28584516112ab8682612829565b600581526426b0b5b2b960d91b60208201526133a4565b6112ce30610ad4612e48565b6112da86610ae5612e71565b6112e68a610ae5612e9b565b6112f28a87308861360e565b86868c8c613c47565b61132985825161130b8482612829565b600c81526b15185ad95c905cdcd95d125960a21b60208201526133f2565b61135a611335866139b9565b82516113418482612829565b600781526642616c616e636560c81b60208201526133f2565b61138289825161136a8482612829565b600681526554616b696e6760d01b60208201526133f2565b8861138c866139b9565b109061139a81519182612829565b600881526702932b9bab63a1d160c51b6020820152613ac1565b866113be846139b9565b10611104578f96988f969960019a7fd0a08e8c493f9c94f29311604c9de1b4e8c8d4c06bd0c789af57f2d65bfec0f6966114006114719588610f4b8787612efa565b6114288b5161140f8d82612829565b60078152665375636365737360c81b6020820152613352565b6114348488333061395b565b8c8060a01b03905116988c8060a01b039051169951958695869192608093969594919660a084019784526020840152604083015260608201520152565b0390a401610d2d565b8592611258565b63a0b9446560e01b5f5260045ffd5b926114a25f928b519083015190612b09565b61119a565b633fcd37a360e11b5f5260045ffd5b6114f486516114c58882612829565b601c81527f20204552433230207472616e7366657246726f6d204641494c454421000000006020820152613352565b610cf3565b5050610ced5f610ce5565b610c5f5f610c1f565b90506020813d602011611537575b8161152860209383612829565b8101031261026857515f610c12565b3d915061151b565b89513d5f823e3d90fd5b602491935061156f602091823d8411611577575b6115678183612829565b810190612e30565b939150610be6565b503d61155d565b90506020813d6020116115a8575b8161159960209383612829565b8101031261026857515f610ba1565b3d915061158c565b88513d5f823e3d90fd5b6115dc915060203d6020116115e2575b6115d48183612829565b810190612e11565b8f610b6a565b503d6115ca565b87513d5f823e3d90fd5b855163076a43af60e31b81526020816004815f305af19081156115e9578b611649926020925f91611817575b508951627eeac760e11b815230600482015260248101929092529092839190829081906044820190565b03916001600160a01b03165afa9081156115e9575f916117e5575b5061167a888c3060018060a01b038a511661360e565b865163076a43af60e31b81526020816004815f305af19081156115b0578c6116d0926020925f916117c8575b508a51627eeac760e11b815230600482015260248101929092529092839190829081906044820190565b03916001600160a01b03165afa9081156115b0575f91611796575b5061172b8289516116fc8b82612829565b601f81527f202045524331313535207072652d7472616e736665722062616c616e63653a0060208201526133f2565b61173789610ae5612ebf565b6117768189516117478b82612829565b602081527f20204552433131353520706f73742d7472616e736665722062616c616e63653a60208201526133f2565b8181111561178b576114f491610ce591612efa565b50506114f45f610ce5565b90506020813d6020116117c0575b816117b160209383612829565b8101031261026857515f6116eb565b3d91506117a4565b6117df9150833d85116115e2576115d48183612829565b5f6116a6565b90506020813d60201161180f575b8161180060209383612829565b8101031261026857518f611664565b3d91506117f3565b61182e9150833d85116115e2576115d48183612829565b5f61161f565b61187286516118438882612829565b601f81527f20204552524f523a20496e73756666696369656e7420616c6c6f77616e6365006020820152613352565b610a17565b6118b588516118868a82612829565b601d81527f20204552524f523a20496e73756666696369656e742062616c616e63650000006020820152613352565b610a11565b91935091506020813d6020116118ed575b816118d860209383612829565b8101031261026857518992909161098d610953565b3d91506118cb565b9291506020833d602011611924575b8161191160209383612829565b810103126102685791519091602061090e565b3d9150611904565b611945915060203d6020116115e2576115d48183612829565b8f6108d4565b855163076a43af60e31b81526020816004815f305af19081156115e9575f91611baa575b5085518751627eeac760e11b81526001600160a01b039182166004820152602481018d905290821691602082604481865afa91821561153f575f92611b73575b508751895163e985e9c560e01b81526001600160a01b03909116600482015230602482015292602090849060449082905afa92831561153f57908a92915f94611b4e575b50611a24908a51611a048c82612829565b600e81526d101021aa231030b2323932b9b99d60911b60208201526133a4565b611a63818a51611a348c82612829565b601f81527f20205072652d7472616e7366657220455243313135352062616c616e63653a0060208201526133f2565b8215611b4557611aaf60015b60ff8b5191611a7e8d84612829565b602083527f20205072652d7472616e73666572204552433131353520617070726f76616c3a602084015216906133f2565b10611af7575b610a17576118728651611ac88882612829565b601d81527f20204552524f523a2045524331313535206e6f7420617070726f7665640000006020820152613352565b611b408751611b068b82612829565b602381527f20204552524f523a20496e73756666696369656e7420746f6b656e2062616c616020820152626e636560e81b89820152613352565b611ab5565b611aaf5f611a6f565b611a24919450611b6c9060203d602011611577576115678183612829565b93906119f3565b9291506020833d602011611ba2575b81611b8f60209383612829565b81010312610268579151909160206119af565b3d9150611b82565b611bc3915060203d6020116115e2576115d48183612829565b8f61196f565b34610268576020366003190112610268576004356001600160401b03811161026857611c03611bfe602092369060040161289f565b612b32565b604051908152f35b34610268576040366003190112610268576024356001600160401b03811161026857611c3b90369060040161289f565b005b3461026857604036600319011261026857611c3b602435600435612b09565b34610268576020366003190112610268576020611c036004355f526007602052600160405f20015490565b34610268576040366003190112610268576004356001600160401b03811161026857611cb7903690600401612a60565b6024356001600160401b03811161026857611cd6903690600401612a03565b90611cdf612df3565b335f526002602052600160405f2054036102595760ff6005541661024a578051905f5b828110611d0f5760015f55005b80611d33611d1f60019385612c81565b513390611d2c8489612c81565b5190612f42565b01611d02565b346102685760a036600319011261026857611d5261279f565b50611d5b6127b5565b506044356001600160401b03811161026857611d7b903690600401612a03565b506064356001600160401b03811161026857611d9b903690600401612a03565b506084356001600160401b03811161026857611dbb90369060040161284a565b5060405163bc197c8160e01b8152602090f35b3461026857602036600319011261026857611de761279f565b335f526001602052600160405f205403611e3d576001600160a01b03165f8181526002602052604081208190553391907ff7262ed0443cc211121ceb1a80d69004f319245615a7488f951f1437fd91642c9080a3005b637bfa4b9f60e01b5f5260045ffd5b34610268576020366003190112610268576004356001600160401b03811161026857611e7f611c3b91369060040161289f565b612d7d565b34610268576020366003190112610268576020611c03600435612af1565b3461026857602036600319011261026857611ebb61279f565b335f526001602052600160405f205403611e3d576001600160a01b03165f818152600260205260408120600190553391907ff1e04d73c4304b5ff164f9d10c7473e2a1593b740674a6107975e2a7001c1e5c9080a3005b34610268575f36600319011261026857611fb1611f4e7f000000000000000000000000000000000000000000000000000000000000000061303d565b611fdf611f7a7f0000000000000000000000000000000000000000000000000000000000000000613166565b611fbf60405191611f8c602084612829565b5f83525f368137604051958695600f60f81b875260e0602088015260e0870190612995565b908582036040870152612995565b904660608501523060808501525f60a085015283820360c08501526129b9565b0390f35b34610268575f36600319011261026857335f526001602052600160405f205403611e3d57335f5260016020525f604081205533337f787a2e12f4a55b658b8f573c32432ee11a5e8b51677d1e1e937aaf6a0bb5776e5f80a3005b34610268576020366003190112610268576001600160a01b0361205e61279f565b165f526006602052602060405f2054604051908152f35b346102685760203660031901126102685761208e61279f565b335f526001602052600160405f205403611e3d576001600160a01b03165f8181526001602081905260408220553391907ff9ffabca9c8276e99321725bcb43fb076a6c66a54b7f21c4e8146d8519b417dc9080a3005b34610268576020366003190112610268576001600160a01b0361210561279f565b165f5260026020526020600160405f205414604051908152f35b34610268576060366003190112610268576004356024359060443591335f526001602052600160405f205403611e3d57808214801561224f575b61224057815f52600760205260405f20541580159061222b575b61221c576040516121838161280e565b818152600160208201858152845f52600760205260405f2092518355519101556040516121af8161280e565b828152600160208201858152835f52600760205260405f2092518355519101558281837fbc9a2432e8aeb48327246cddd6e872ef452812b4243c04e6bfb786a2cd8faf0d5f80a47fbc9a2432e8aeb48327246cddd6e872ef452812b4243c04e6bfb786a2cd8faf0d5f80a4005b630ea075bf60e21b5f5260045ffd5b50805f52600760205260405f20541515612173565b6307ed98ed60e31b5f5260045ffd5b5081158061215957508015612159565b34610268576020366003190112610268576004356001600160401b03811161026857612292611c3b91369060040161289f565b61229b81612b32565b612ca2565b34610268575f36600319011261026857335f52600660205260405f2054600181018091116122d957335f52600660205260405f20555f80f35b634e487b7160e01b5f52601160045260245ffd5b34610268575f36600319011261026857602060ff600554166040519015158152f35b34610268575f366003190112610268576040517f00000000000000000000000000000000000000000000000000000000000000006001600160a01b03168152602090f35b34610268576020366003190112610268576004355f5260076020526040805f206001815491015482519182526020820152f35b34610268575f3660031901126102685760206040516103e88152f35b34610268576020366003190112610268575f604080516123c1816127df565b82815282602082015201526004355f526008602052606060405f206040516123e8816127df565b81546040600160ff831615159485855260ff602086019460081c1615158452015492019182526040519283525115156020830152516040820152f35b34610268575f36600319011261026857335f526001602052600160405f205403611e3d5760ff1960055416600555337fa1e8a54850dbd7f520bcc09f47bff152294b77b2081da545a7adf531b7ea283b5f80a2005b34610268575f3660031901126102685760206040515f8152f35b34610268576020366003190112610268576001600160a01b036124b461279f565b165f526001602052602060405f2054604051908152f35b34610268575f36600319011261026857335f526002602052600160405f20540361025957335f5260026020525f604081205533337ff7262ed0443cc211121ceb1a80d69004f319245615a7488f951f1437fd91642c5f80a3005b34610268575f366003190112610268576040517f00000000000000000000000000000000000000000000000000000000000000006001600160a01b03168152602090f35b3461026857602036600319011261026857611c3b600435612ade565b34610268576020366003190112610268576004355f526008602052606060405f206001815491015460ff604051928181161515845260081c16151560208301526040820152f35b34610268576020366003190112610268576001600160a01b036125ed61279f565b165f5260016020526020600160405f205414604051908152f35b346102685760203660031901126102685761262061279f565b335f526001602052600160405f205403611e3d576001600160a01b03165f8181526001602052604081208190553391907f787a2e12f4a55b658b8f573c32432ee11a5e8b51677d1e1e937aaf6a0bb5776e9080a3005b34610268576020366003190112610268576001600160a01b0361269761279f565b165f526002602052602060405f2054604051908152f35b34610268575f36600319011261026857335f526001602052600160405f205403611e3d57600160ff196005541617600555337f203c4bd3e526634f661575359ff30de3b0edaba6c2cb1eac60f730b6d2d9d5365f80a2005b3461026857604036600319011261026857602061274261272461279f565b6001600160a01b03165f908152600660205260409020546024351490565b6040519015158152f35b34610268576020366003190112610268576004359063ffffffff60e01b821680920361026857602091630271189760e51b811490811561278e575b5015158152f35b6301ffc9a760e01b14905083612787565b600435906001600160a01b038216820361026857565b602435906001600160a01b038216820361026857565b35906001600160a01b038216820361026857565b606081019081106001600160401b038211176127fa57604052565b634e487b7160e01b5f52604160045260245ffd5b604081019081106001600160401b038211176127fa57604052565b90601f801991011681019081106001600160401b038211176127fa57604052565b81601f82011215610268578035906001600160401b0382116127fa576040519261287e601f8401601f191660200185612829565b8284526020838301011161026857815f926020809301838601378301015290565b91906101a08382031261026857604051906101a082018281106001600160401b038211176127fa576040528193803583526128dc602082016127cb565b60208401526128ed604082016127cb565b60408401526128fe606082016127cb565b60608401526080810135608084015260a081013560a084015260c081013560c084015260e081013560e0840152610100810135610100840152610120810135610120840152610140810135600281101561026857610140840152610160810135600381101561026857610160840152610180810135916001600160401b0383116102685761018092612990920161284a565b910152565b805180835260209291819084018484015e5f828201840152601f01601f1916010190565b90602080835192838152019201905f5b8181106129d65750505090565b82518452602093840193909201916001016129c9565b6001600160401b0381116127fa5760051b60200190565b9080601f83011215610268578135612a1a816129ec565b92612a286040519485612829565b81845260208085019260051b82010192831161026857602001905b828210612a505750505090565b8135815260209182019101612a43565b9080601f83011215610268578135612a77816129ec565b92612a856040519485612829565b81845260208085019260051b820101918383116102685760208201905b838210612ab157505050505090565b81356001600160401b03811161026857602091612ad38784809488010161289f565b815201910190612aa2565b5f52600760205260405f20541561224057565b612afa81612ade565b5f52600760205260405f205490565b612b1290612af1565b03612b1957565b63337c310560e11b5f5260045ffd5b600311156110e957565b8051602082015160408301516060840151608085015160a086015160c087015160e08801516101008901516101208a01516101408b01516001600160a01b039889169b9a9989169890979196929593949392911660028810156110e95760429b6101607fa852566c4e14d00869b6db0220888a9090a13eccdaea03713ff0a3d27bf9767c9c015199612bc38b612b28565b6040519b60208d019d8e5260408d015260608c015260808b015260a08a015260c089015260e0880152610100870152610120860152610140850152610160840152610180830152612c1381612b28565b6101a08201526101a08152612c2a6101c082612829565b519020612c35613236565b906040519161190160f01b8352600283015260228201522090565b805115612c5d5760200190565b634e487b7160e01b5f52603260045260245ffd5b805160011015612c5d5760400190565b8051821015612c5d5760209160051b010190565b919082018092116122d957565b60e08201518015159081612d73575b50612d64576103e861012083015111612d5557612cd16080830151612ade565b805f52600860205260ff60405f205460081c16612d46575f52600860205260ff60405f205416612d3757602081810151610100909201516001600160a01b039092165f9081526006909152604090205403612d2857565b633ab3447f60e11b5f5260045ffd5b630658bfd160e01b5f5260045ffd5b6374ca404360e01b5f5260045ffd5b63cd4e616760e01b5f5260045ffd5b6362b439dd60e11b5f5260045ffd5b905042115f612cb1565b60208101516001600160a01b03163303612de457612d9a90612b32565b805f52600860205260405f20805460ff8160081c16612d465761ff0019166101001790557f5152abf959f6564662358c2e52b702259b78bac5ee7842a0f01937e670efcc7d5f80a2565b6330cd747160e01b5f5260045ffd5b60025f5414612e025760025f55565b633ee5aeb560e01b5f5260045ffd5b9081602091031261026857516001600160a01b03811681036102685790565b90816020910312610268575180151581036102685790565b60405190612e57604083612829565b600b82526a416464726573735468697360a81b6020830152565b60405190612e80604083612829565b600c82526b13585ad95c905cdcd95d125960a21b6020830152565b60405190612eaa604083612829565b60068252654d616b696e6760d01b6020830152565b60405190612ece604083612829565b601a82527f202045787065637465642062616c616e6365206368616e67653a0000000000006020830152565b919082039182116122d957565b60405190612f16604083612829565b601882527f202041637475616c2062616c616e6365206368616e67653a00000000000000006020830152565b91612f4d8284613435565b919092610120850151610140860192835160028110156110e9576130365785905b60a08801519260c0890151955160028110156110e9577fd0a08e8c493f9c94f29311604c9de1b4e8c8d4c06bd0c789af57f2d65bfec0f69660209561303195612fb694613851565b90612ff985612fc48b6135e9565b96819c0193612fe98c89612fe28960018060a01b038a511693612efa565b913361360e565b84516001600160a01b031661360e565b60018060a01b0390511696604051948594339a869192608093969594919660a084019784526020840152604083015260608201520152565b0390a4565b8290612f6e565b60ff81146130835760ff811690601f82116130745760405191613061604084612829565b6020808452838101919036833783525290565b632cd44ac360e21b5f5260045ffd5b506040515f6003548060011c916001821691821561315c575b60208410831461314857838552849290811561312957506001146130ca575b6130c792500382612829565b90565b5060035f90815290917fc2575a0e9e593c00f959f8c92f12db2869c3395a3b0502d05e2516446f71f85b5b81831061310d5750509060206130c7928201016130bb565b60209193508060019154838588010152019101909183926130f5565b602092506130c794915060ff191682840152151560051b8201016130bb565b634e487b7160e01b5f52602260045260245ffd5b92607f169261309c565b60ff811461318a5760ff811690601f82116130745760405191613061604084612829565b506040515f6004548060011c916001821691821561322c575b60208410831461314857838552849290811561312957506001146131cd576130c792500382612829565b5060045f90815290917f8a35acfbc15ff81a39ae7d344fd709f28e8600b4aa8c65c6b64bfe7fe36bd19b5b8183106132105750509060206130c7928201016130bb565b60209193508060019154838588010152019101909183926131f8565b92607f16926131a3565b307f00000000000000000000000000000000000000000000000000000000000000006001600160a01b03161480613329575b15613291577f000000000000000000000000000000000000000000000000000000000000000090565b60405160208101907f8b73c3c69bb8fe3d512ecc4cf759cc79239f7b179b0ffacaa9a75d522b39400f82527f000000000000000000000000000000000000000000000000000000000000000060408201527f000000000000000000000000000000000000000000000000000000000000000060608201524660808201523060a082015260a0815261332360c082612829565b51902090565b507f00000000000000000000000000000000000000000000000000000000000000004614613268565b5f61337f61338d829360405192839163104c13eb60e21b6020840152602060248401526044830190612995565b03601f198101835282612829565b6020815191016a636f6e736f6c652e6c6f675afa50565b6133d361338d5f9392849360405193849263319af33360e01b6020850152604060248501526064840190612995565b6001600160a01b0391909116604483015203601f198101835282612829565b61342161338d5f93928493604051938492632d839cb360e21b6020850152604060248501526064840190612995565b90604483015203601f198101835282612829565b60608101519092906001600160a01b031680151590816135de575b506135cf5761345e83612b32565b916134698484612ca2565b60409361349c855161347b8782612829565b600f81526e13dc99195c881d985b1a59185d1959608a1b6020820152613352565b61353f60c060a08301926134d8845189516134b78b82612829565b600f81526e026b0b935b2ba1020b6b7bab73a1d1608d1b60208201526133f2565b0161350a815188516134ea8a82612829565b600e81526d02a30b5b2b91020b6b7bab73a1d160951b60208201526133f2565b61353484885161351a8a82612829565b6008815267026b0b5b4b7339d160c51b60208201526133f2565b825190519084613aa2565b946135718682516135508482612829565b600f81526e02a30b5b4b7339020b6b7bab73a1d1608d1b60208201526133f2565b845f5260086020525f20916001830191825480155f146135c7575051905b8181116135b85761359f91612efa565b9182156135aa575055565b805460ff1916600117905555565b637166356b60e11b5f5260045ffd5b90509061358f565b635211a07960e01b5f5260045ffd5b90503314155f613450565b6101408101519060028210156110e95760809115613608570151905f90565b01515f91565b92919283156136b8577f00000000000000000000000000000000000000000000000000000000000000006001600160a01b031690813b15610268575f60c49281956040519788968795637921219560e11b875260018060a01b0316600487015260018060a01b031660248601526044850152606484015260a060848401528160a48401525af180156136ad576136a15750565b5f6136ab91612829565b565b6040513d5f823e3d90fd5b919250907f0000000000000000000000000000000000000000000000000000000000000000906001600160a01b0316308103613781575060405163a9059cbb60e01b81526001600160a01b039283166004820152602481019390935216906020905f9060449082855af19081601f3d1160015f5114161516613774575b501561373d57565b60405162461bcd60e51b815260206004820152600f60248201526e1514905394d1915497d19052531151608a1b6044820152606490fd5b3b153d171590505f613735565b6040516323b872dd60e01b815260048101919091526001600160a01b039283166024820152604481019390935216906020905f9060649082855af19081601f3d1160015f5114161516613813575b50156137d757565b60405162461bcd60e51b81526020600482015260146024820152731514905394d1915497d19493d357d1905253115160621b6044820152606490fd5b3b153d171590505f6137cf565b818102929181159184041417156122d957565b811561383d570490565b634e487b7160e01b5f52601260045260245ffd5b90919493925f9582613865575b5050505050565b613870918591613b06565b91821593841580613949575b1561385e579091929394955060028110156110e9576138fa5782670de0b6b3a764000003670de0b6b3a764000081116122d9576138cc926138c791808610156138f457508490613820565b613820565b9161271082029182046127101417156122d9576138e891613833565b905b5f8080808061385e565b90613820565b90925081670de0b6b3a764000003670de0b6b3a764000081116122d95769021e19e0c9bab24000009361393a936138c79280821015613941575090613820565b04906138ea565b905090613820565b50670de0b6b3a764000084111561387c565b909291928261396b575b50505050565b8261399b7facffcc86834d0f1a64b0d5a675798deed6ff0bcfc2231edd3480e7288dba7ff494868460409661360e565b825194855260208501526001600160a01b031692a25f808080613965565b8015613a4b57604051627eeac760e11b815230600482015260248101919091526020816044816001600160a01b037f0000000000000000000000000000000000000000000000000000000000000000165afa9081156136ad575f91613a1c575090565b90506020813d602011613a43575b81613a3760209383612829565b81010312610268575190565b3d9150613a2a565b506040516370a0823160e01b81523060048201526020816024817f00000000000000000000000000000000000000000000000000000000000000006001600160a01b03165afa9081156136ad575f91613a1c575090565b8115613aba576130c792613ab591613820565b613833565b5050505f90565b613af061338d5f9392849360405193849263c3b5563560e01b6020850152604060248501526064840190612995565b901515604483015203601f198101835282612829565b909160028110156110e95715613b4c578015613b4657670de0b6b3a7640000820291808304670de0b6b3a764000014901517156122d9576130c791613833565b50505f90565b908015613b4657670de0b6b3a7640000820291808304670de0b6b3a764000014901517156122d9576130c791613833565b61014001805160028110156110e9571580613bd9575b613bd2575160028110156110e9576001149081613bb9575b50613bb4575f90565b600290565b6101409150015160028110156110e9576001145f613bab565b5050600190565b5061014082015160028110156110e95715613b93565b60c0810151158015613c3b575b613bd257613c0981613e71565b91610140613c1682613e71565b9201519060028210156110e95761014001519160028310156110e9576130c793613e95565b5060c082015115613bfc565b9293905f94613c5583612b28565b8215613e6957613c6483612b28565b60018314613d87575050600290613c7a81612b28565b14613c8457505050565b613c9a905f526007602052600160405f20015490565b604051613ca8606082612829565b6002815260403660208301376001613cbf82612c50565b526002613ccb82612c71565b527f00000000000000000000000000000000000000000000000000000000000000006001600160a01b031691823b15613d8357604051639e7212ad60e01b815293859385939092849286928492613d519291907f00000000000000000000000000000000000000000000000000000000000000006001600160a01b031660048601613efa565b03925af18015613d7857613d63575050565b613d6e828092612829565b613d755750565b80fd5b6040513d84823e3d90fd5b8480fd5b9250935050613da391505f526007602052600160405f20015490565b60405191613db2606084612829565b6002835260403660208501376001613dc984612c50565b526002613dd584612c71565b527f00000000000000000000000000000000000000000000000000000000000000006001600160a01b0316803b15610268576040516372ce427560e01b8152935f938593849286928492613e589290917f00000000000000000000000000000000000000000000000000000000000000006001600160a01b031660048601613efa565b03925af180156136ad576136a15750565b505050505050565b60a08101519061014060c08201519101519060028210156110e9576130c792613b06565b92909160028110156110e95715613ed15760028110156110e95715613ecc57613ec790670de0b6b3a764000092612c95565b111590565b101590565b60028193929310156110e95715613ee757101590565b670de0b6b3a764000091613ecc91612c95565b949392608092613f2a9260018060a01b031687525f6020880152604087015260a0606087015260a08601906129b9565b93015256fea26469706673582212202a1802ca573e3b882758883221fcc9baa7d373aa08428d82713813051731f82064736f6c634300081b0033",
    "linkReferences": {}
  },
  "methodIdentifiers": {
    "addAdmin(address)": "70480275",
    "addOperator(address)": "9870d7fe",
    "admins(address)": "429b62e5",
    "cancelOrder((uint256,address,address,address,uint256,uint256,uint256,uint256,uint256,uint256,uint8,uint8,bytes))": "a6dfcf86",
    "cancelOrders((uint256,address,address,address,uint256,uint256,uint256,uint256,uint256,uint256,uint8,uint8,bytes)[])": "fa950b48",
    "domainSeparator()": "f698da25",
    "eip712Domain()": "84b0196e",
    "fillOrder((uint256,address,address,address,uint256,uint256,uint256,uint256,uint256,uint256,uint8,uint8,bytes),uint256)": "fe729aaf",
    "fillOrders((uint256,address,address,address,uint256,uint256,uint256,uint256,uint256,uint256,uint8,uint8,bytes)[],uint256[])": "d798eff6",
    "getCollateral()": "5c1548fb",
    "getComplement(uint256)": "a10f3dce",
    "getConditionId(uint256)": "d7fb272f",
    "getCtf()": "3b521d78",
    "getMaxFeeRate()": "4a2a11f5",
    "getOrderStatus(bytes32)": "46423aa7",
    "hashOrder((uint256,address,address,address,uint256,uint256,uint256,uint256,uint256,uint256,uint8,uint8,bytes))": "e50e4f97",
    "incrementNonce()": "627cdcb9",
    "isAdmin(address)": "24d7806c",
    "isOperator(address)": "6d70f7ae",
    "isValidNonce(address,uint256)": "0647ee20",
    "matchOrders((uint256,address,address,address,uint256,uint256,uint256,uint256,uint256,uint256,uint8,uint8,bytes),(uint256,address,address,address,uint256,uint256,uint256,uint256,uint256,uint256,uint8,uint8,bytes)[],uint256,uint256[])": "e60f0c05",
    "nonces(address)": "7ecebe00",
    "onERC1155BatchReceived(address,address,uint256[],uint256[],bytes)": "bc197c81",
    "onERC1155Received(address,address,uint256,uint256,bytes)": "f23a6e61",
    "operators(address)": "13e7c9d8",
    "orderStatus(bytes32)": "2dff692d",
    "parentCollectionId()": "44bea37e",
    "pauseTrading()": "1031e36e",
    "paused()": "5c975abb",
    "registerToken(uint256,uint256,bytes32)": "68c7450f",
    "registry(uint256)": "5893253c",
    "removeAdmin(address)": "1785f53c",
    "removeOperator(address)": "ac8a584a",
    "renounceAdminRole()": "83b8a5ae",
    "renounceOperatorRole()": "3d6d3598",
    "supportsInterface(bytes4)": "01ffc9a7",
    "unpauseTrading()": "456068d2",
    "validateComplement(uint256,uint256)": "d82da838",
    "validateOrder((uint256,address,address,address,uint256,uint256,uint256,uint256,uint256,uint256,uint8,uint8,bytes))": "654f0ce4",
    "validateOrderSignature(bytes32,(uint256,address,address,address,uint256,uint256,uint256,uint256,uint256,uint256,uint8,uint8,bytes))": "e2eec405",
    "validateTokenId(uint256)": "34600901"
  },
  "id": 52
}