{
  "abi": [
    {
      "type": "constructor",
      "inputs": [
        {
          "name": "_ctf",
          "type": "address",
          "internalType": "address"
        },
        {
          "name": "_exchange",
          "type": "address",
          "internalType": "address"
        },
        {
          "name": "_collateral",
          "type": "address",
          "internalType": "address"
        }
      ],
      "stateMutability": "nonpayable"
    },
    {
      "type": "function",
      "name": "collateral",
      "inputs": [],
      "outputs": [
        {
          "name": "",
          "type": "address",
          "internalType": "contract IERC20"
        }
      ],
      "stateMutability": "view"
    },
    {
      "type": "function",
      "name": "createMarket",
      "inputs": [
        {
          "name": "question",
          "type": "string",
          "internalType": "string"
        },
        {
          "name": "oracle",
          "type": "address",
          "internalType": "address"
        }
      ],
      "outputs": [
        {
          "name": "conditionId",
          "type": "bytes32",
          "internalType": "bytes32"
        },
        {
          "name": "yesTokenId",
          "type": "uint256",
          "internalType": "uint256"
        },
        {
          "name": "noTokenId",
          "type": "uint256",
          "internalType": "uint256"
        }
      ],
      "stateMutability": "nonpayable"
    },
    {
      "type": "function",
      "name": "createMultipleMarkets",
      "inputs": [
        {
          "name": "questions",
          "type": "string[]",
          "internalType": "string[]"
        },
        {
          "name": "oracle",
          "type": "address",
          "internalType": "address"
        }
      ],
      "outputs": [
        {
          "name": "conditionIds",
          "type": "bytes32[]",
          "internalType": "bytes32[]"
        },
        {
          "name": "yesTokenIds",
          "type": "uint256[]",
          "internalType": "uint256[]"
        },
        {
          "name": "noTokenIds",
          "type": "uint256[]",
          "internalType": "uint256[]"
        }
      ],
      "stateMutability": "nonpayable"
    },
    {
      "type": "function",
      "name": "ctf",
      "inputs": [],
      "outputs": [
        {
          "name": "",
          "type": "address",
          "internalType": "contract IConditionalTokens"
        }
      ],
      "stateMutability": "view"
    },
    {
      "type": "function",
      "name": "exchange",
      "inputs": [],
      "outputs": [
        {
          "name": "",
          "type": "address",
          "internalType": "contract ICTFExchange"
        }
      ],
      "stateMutability": "view"
    },
    {
      "type": "function",
      "name": "getMarketDataByQuestion",
      "inputs": [
        {
          "name": "question",
          "type": "string",
          "internalType": "string"
        }
      ],
      "outputs": [
        {
          "name": "conditionId",
          "type": "bytes32",
          "internalType": "bytes32"
        },
        {
          "name": "yesTokenId",
          "type": "uint256",
          "internalType": "uint256"
        },
        {
          "name": "noTokenId",
          "type": "uint256",
          "internalType": "uint256"
        }
      ],
      "stateMutability": "view"
    },
    {
      "type": "function",
      "name": "marketOracles",
      "inputs": [
        {
          "name": "",
          "type": "bytes32",
          "internalType": "bytes32"
        }
      ],
      "outputs": [
        {
          "name": "",
          "type": "address",
          "internalType": "address"
        }
      ],
      "stateMutability": "view"
    },
    {
      "type": "function",
      "name": "onERC1155BatchReceived",
      "inputs": [
        {
          "name": "",
          "type": "address",
          "internalType": "address"
        },
        {
          "name": "",
          "type": "address",
          "internalType": "address"
        },
        {
          "name": "",
          "type": "uint256[]",
          "internalType": "uint256[]"
        },
        {
          "name": "",
          "type": "uint256[]",
          "internalType": "uint256[]"
        },
        {
          "name": "",
          "type": "bytes",
          "internalType": "bytes"
        }
      ],
      "outputs": [
        {
          "name": "",
          "type": "bytes4",
          "internalType": "bytes4"
        }
      ],
      "stateMutability": "pure"
    },
    {
      "type": "function",
      "name": "onERC1155Received",
      "inputs": [
        {
          "name": "",
          "type": "address",
          "internalType": "address"
        },
        {
          "name": "",
          "type": "address",
          "internalType": "address"
        },
        {
          "name": "",
          "type": "uint256",
          "internalType": "uint256"
        },
        {
          "name": "",
          "type": "uint256",
          "internalType": "uint256"
        },
        {
          "name": "",
          "type": "bytes",
          "internalType": "bytes"
        }
      ],
      "outputs": [
        {
          "name": "",
          "type": "bytes4",
          "internalType": "bytes4"
        }
      ],
      "stateMutability": "pure"
    },
    {
      "type": "function",
      "name": "owner",
      "inputs": [],
      "outputs": [
        {
          "name": "",
          "type": "address",
          "internalType": "address"
        }
      ],
      "stateMutability": "view"
    },
    {
      "type": "function",
      "name": "questionIdToMarketData",
      "inputs": [
        {
          "name": "",
          "type": "bytes32",
          "internalType": "bytes32"
        }
      ],
      "outputs": [
        {
          "name": "conditionId",
          "type": "bytes32",
          "internalType": "bytes32"
        },
        {
          "name": "yesTokenId",
          "type": "uint256",
          "internalType": "uint256"
        },
        {
          "name": "noTokenId",
          "type": "uint256",
          "internalType": "uint256"
        }
      ],
      "stateMutability": "view"
    },
    {
      "type": "function",
      "name": "renounceOwnership",
      "inputs": [],
      "outputs": [],
      "stateMutability": "nonpayable"
    },
    {
      "type": "function",
      "name": "supportsInterface",
      "inputs": [
        {
          "name": "interfaceId",
          "type": "bytes4",
          "internalType": "bytes4"
        }
      ],
      "outputs": [
        {
          "name": "",
          "type": "bool",
          "internalType": "bool"
        }
      ],
      "stateMutability": "pure"
    },
    {
      "type": "function",
      "name": "transferOwnership",
      "inputs": [
        {
          "name": "newOwner",
          "type": "address",
          "internalType": "address"
        }
      ],
      "outputs": [],
      "stateMutability": "nonpayable"
    },
    {
      "type": "event",
      "name": "MarketCreated",
      "inputs": [
        {
          "name": "questionId",
          "type": "bytes32",
          "indexed": false,
          "internalType": "bytes32"
        }
      ],
      "anonymous": false
    },
    {
      "type": "event",
      "name": "OwnershipTransferred",
      "inputs": [
        {
          "name": "previousOwner",
          "type": "address",
          "indexed": true,
          "internalType": "address"
        },
        {
          "name": "newOwner",
          "type": "address",
          "indexed": true,
          "internalType": "address"
        }
      ],
      "anonymous": false
    },
    {
      "type": "error",
      "name": "OwnableInvalidOwner",
      "inputs": [
        {
          "name": "owner",
          "type": "address",
          "internalType": "address"
        }
      ]
    },
    {
      "type": "error",
      "name": "OwnableUnauthorizedAccount",
      "inputs": [
        {
          "name": "account",
          "type": "address",
          "internalType": "address"
        }
      ]
    }
  ],
  "bytecode": {
    "object": "0x60803461010c57601f610e9938819003918201601f19168301916001600160401b038311848410176101105780849260609460405283398101031261010c5761004781610124565b90610060604061005960208401610124565b9201610124565b9033156100f9575f8054336001600160a01b0319821681178355604051959290916001600160a01b0316907f8be0079c531659141344cd1fd0a4f28419497f9722a3daafe3b4186f6b6457e09080a3600180546001600160a01b03199081166001600160a01b039384161790915560038054821693831693909317909255600280549092169216919091179055610d6090816101398239f35b631e4fbdf760e01b5f525f60045260245ffd5b5f80fd5b634e487b7160e01b5f52604160045260245ffd5b51906001600160a01b038216820361010c5756fe6080806040526004361015610012575f80fd5b5f3560e01c90816301ffc9a714610688575080630ddf02c61461058f57806322a9339f14610567578063326ec1a9146103f1578063635d3150146103a6578063715018a61461034f5780638da5cb5b14610328578063bc197c8114610290578063bf1f167d14610217578063d2f7265a146101ef578063d8dfeb45146101c7578063e5a5064b14610195578063f23a6e611461013f5763f2fde38b146100b6575f80fd5b3461013b57602036600319011261013b576100cf6107b7565b6100d7610d04565b6001600160a01b03168015610128575f80546001600160a01b03198116831782556001600160a01b0316907f8be0079c531659141344cd1fd0a4f28419497f9722a3daafe3b4186f6b6457e09080a3005b631e4fbdf760e01b5f525f60045260245ffd5b5f80fd5b3461013b5760a036600319011261013b576101586107b7565b506101616107a1565b506084356001600160401b03811161013b57610181903690600401610800565b505060405163f23a6e6160e01b8152602090f35b3461013b57602036600319011261013b576004355f526004602052602060018060a01b0360405f205416604051908152f35b3461013b575f36600319011261013b576002546040516001600160a01b039091168152602090f35b3461013b575f36600319011261013b576003546040516001600160a01b039091168152602090f35b3461013b57604036600319011261013b576004356001600160401b03811161013b5761026f61024d61028c923690600401610753565b6102556107a1565b9061026a6001600160a01b038316151561082d565b6108ea565b604080519384526020840192909252908201529081906060820190565b0390f35b3461013b5760a036600319011261013b576102a96107b7565b506102b26107a1565b506044356001600160401b03811161013b576102d2903690600401610771565b50506064356001600160401b03811161013b576102f3903690600401610771565b50506084356001600160401b03811161013b57610314903690600401610800565b505060405163bc197c8160e01b8152602090f35b3461013b575f36600319011261013b575f546040516001600160a01b039091168152602090f35b3461013b575f36600319011261013b57610367610d04565b5f80546001600160a01b0319811682556001600160a01b03167f8be0079c531659141344cd1fd0a4f28419497f9722a3daafe3b4186f6b6457e08280a3005b3461013b57602036600319011261013b576004355f52600560205260405f20805461028c60026001840154930154604051938493846040919493926060820195825260208201520152565b3461013b57604036600319011261013b576004356001600160401b03811161013b57610421903690600401610771565b6104296107a1565b61043d6001600160a01b038216151561082d565b61044682610879565b9261045460405194856106ed565b82845261046083610879565b602085019190601f190136833761047684610890565b9161048085610890565b9136819003601e1901915f5b87811015610501578060051b8301358481121561013b578301908135916001600160401b03831161013b57602001823603811361013b578a826104da8b61026a6104e495600198369161070e565b94919290936108c2565b526104ef838a6108c2565b526104fa82886108c2565b520161048c565b85898684604051938493606085019060608652518091526080850192905f5b81811061054e5750505081610540918561028c95940360208701526107cd565b9083820360408501526107cd565b8251855287965060209485019490920191600101610520565b3461013b575f36600319011261013b576001546040516001600160a01b039091168152602090f35b3461013b57602036600319011261013b576004356001600160401b03811161013b576105bf903690600401610753565b6040516105eb6020828180820195805191829101875e81015f838201520301601f1981018352826106ed565b5190205f52600560205260405f2060405190610606826106be565b80549182815260026001830154926020830193845201549260408201938452156106505761028c905191519251604051938493846040919493926060820195825260208201520152565b60405162461bcd60e51b815260206004820152601060248201526f13585c9ad95d081b9bdd08199bdd5b9960821b6044820152606490fd5b3461013b57602036600319011261013b576004359063ffffffff60e01b821680920361013b57602091630271189760e51b148152f35b606081019081106001600160401b038211176106d957604052565b634e487b7160e01b5f52604160045260245ffd5b90601f801991011681019081106001600160401b038211176106d957604052565b9291926001600160401b0382116106d95760405191610737601f8201601f1916602001846106ed565b82948184528183011161013b578281602093845f960137010152565b9080601f8301121561013b5781602061076e9335910161070e565b90565b9181601f8401121561013b578235916001600160401b03831161013b576020808501948460051b01011161013b57565b602435906001600160a01b038216820361013b57565b600435906001600160a01b038216820361013b57565b90602080835192838152019201905f5b8181106107ea5750505090565b82518452602093840193909201916001016107dd565b9181601f8401121561013b578235916001600160401b03831161013b576020838186019501011161013b57565b1561083457565b60405162461bcd60e51b815260206004820152601d60248201527f4f7261636c652063616e6e6f74206265207a65726f20616464726573730000006044820152606490fd5b6001600160401b0381116106d95760051b60200190565b9061089a82610879565b6108a760405191826106ed565b82815280926108b8601f1991610879565b0190602036910137565b80518210156108d65760209160051b010190565b634e487b7160e01b5f52603260045260245ffd5b6040516020810190610919602082815f96805191829101875e81015f838201520301601f1981018352826106ed565b5190206001546001600160a01b03169390843b1561013b575f809460646040518097819363365bb9d560e21b835260018060a01b0316998a6004840152866024840152600260448401525af1938415610cf957606494610ce4575b50600154604051634296357160e11b81526004810187905260248101839052600260448201529460209186919082906001600160a01b03165afa938415610bfb578394610cb0575b508394848452600460205260408420906bffffffffffffffffffffffff60a01b82541617905560018060a01b03600154169260018060a01b0360025416946040519463856296f760e01b865282600487015281602487015260016044870152602086606481845afa958615610bfb578396610c7b575b5060405163039dd75360e41b81526001600160a01b03881660048201526024810196909652602086604481845afa958615610bfb578396610c47575b5085966040519063856296f760e01b825284600483015283602483015260026044830152602082606481865afa918215610c3c578592610c06575b5060405163039dd75360e41b81526001600160a01b03909116600482015260248101919091529060209082908180604481015b03915afa908115610bfb578391610bc9575b508095604051610afd816106be565b838152602080820183815260408084018681528989526005909352872092518355516001830155516002909101556003546001600160a01b0316803b15610bc5578492918360649260405196879586946368c7450f60e01b86526004860152602485015260448401525af18015610bba57610ba2575b505060207f08cb70e14cc163ee57cfcaaa2804dfb8d5d4586681278abcaf2038131ee9a0f491604051908152a1565b610bad8280926106ed565b610bb75780610b73565b80fd5b6040513d84823e3d90fd5b8480fd5b90506020813d602011610bf3575b81610be4602093836106ed565b8101031261013b57515f610aee565b3d9150610bd7565b6040513d85823e3d90fd5b91506020823d602011610c34575b81610c21602093836106ed565b8101031261013b57905190610adc610aa9565b3d9150610c14565b6040513d87823e3d90fd5b9095506020813d602011610c73575b81610c63602093836106ed565b8101031261013b5751945f610a6e565b3d9150610c56565b95506020863d602011610ca8575b81610c96602093836106ed565b8101031261013b579451946020610a32565b3d9150610c89565b9093506020813d602011610cdc575b81610ccc602093836106ed565b8101031261013b5751925f6109bc565b3d9150610cbf565b610cf19193505f906106ed565b5f915f610974565b6040513d5f823e3d90fd5b5f546001600160a01b03163303610d1757565b63118cdaa760e01b5f523360045260245ffdfea264697066735822122079ac29af87f044e5b1a70a7be82b726a0ecc0b37ed1a07000dac3fe2c8d1223564736f6c634300081b0033",
    "linkReferences": {}
  },
  "methodIdentifiers": {
    "collateral()": "d8dfeb45",
    "createMarket(string,address)": "bf1f167d",
    "createMultipleMarkets(string[],address)": "326ec1a9",
    "ctf()": "22a9339f",
    "exchange()": "d2f7265a",
    "getMarketDataByQuestion(string)": "0ddf02c6",
    "marketOracles(bytes32)": "e5a5064b",
    "onERC1155BatchReceived(address,address,uint256[],uint256[],bytes)": "bc197c81",
    "onERC1155Received(address,address,uint256,uint256,bytes)": "f23a6e61",
    "owner()": "8da5cb5b",
    "questionIdToMarketData(bytes32)": "635d3150",
    "renounceOwnership()": "715018a6",
    "supportsInterface(bytes4)": "01ffc9a7",
    "transferOwnership(address)": "f2fde38b"
  },
  "id": 51
}