{
  "abi": [
    {
      "type": "constructor",
      "inputs": [],
      "stateMutability": "nonpayable"
    },
    {
      "type": "function",
      "name": "balanceOf",
      "inputs": [
        {
          "name": "account",
          "type": "address",
          "internalType": "address"
        },
        {
          "name": "id",
          "type": "uint256",
          "internalType": "uint256"
        }
      ],
      "outputs": [
        {
          "name": "",
          "type": "uint256",
          "internalType": "uint256"
        }
      ],
      "stateMutability": "view"
    },
    {
      "type": "function",
      "name": "balanceOfBatch",
      "inputs": [
        {
          "name": "accounts",
          "type": "address[]",
          "internalType": "address[]"
        },
        {
          "name": "ids",
          "type": "uint256[]",
          "internalType": "uint256[]"
        }
      ],
      "outputs": [
        {
          "name": "",
          "type": "uint256[]",
          "internalType": "uint256[]"
        }
      ],
      "stateMutability": "view"
    },
    {
      "type": "function",
      "name": "getCollectionId",
      "inputs": [
        {
          "name": "parentCollectionId",
          "type": "bytes32",
          "internalType": "bytes32"
        },
        {
          "name": "conditionId",
          "type": "bytes32",
          "internalType": "bytes32"
        },
        {
          "name": "indexSet",
          "type": "uint256",
          "internalType": "uint256"
        }
      ],
      "outputs": [
        {
          "name": "",
          "type": "bytes32",
          "internalType": "bytes32"
        }
      ],
      "stateMutability": "pure"
    },
    {
      "type": "function",
      "name": "getConditionId",
      "inputs": [
        {
          "name": "oracle",
          "type": "address",
          "internalType": "address"
        },
        {
          "name": "questionId",
          "type": "bytes32",
          "internalType": "bytes32"
        },
        {
          "name": "outcomeSlotCount",
          "type": "uint256",
          "internalType": "uint256"
        }
      ],
      "outputs": [
        {
          "name": "",
          "type": "bytes32",
          "internalType": "bytes32"
        }
      ],
      "stateMutability": "pure"
    },
    {
      "type": "function",
      "name": "getOutcomeSlotCount",
      "inputs": [
        {
          "name": "conditionId",
          "type": "bytes32",
          "internalType": "bytes32"
        }
      ],
      "outputs": [
        {
          "name": "",
          "type": "uint256",
          "internalType": "uint256"
        }
      ],
      "stateMutability": "view"
    },
    {
      "type": "function",
      "name": "getPositionId",
      "inputs": [
        {
          "name": "collateralToken",
          "type": "address",
          "internalType": "contract IERC20"
        },
        {
          "name": "collectionId",
          "type": "bytes32",
          "internalType": "bytes32"
        }
      ],
      "outputs": [
        {
          "name": "",
          "type": "uint256",
          "internalType": "uint256"
        }
      ],
      "stateMutability": "pure"
    },
    {
      "type": "function",
      "name": "isApprovedForAll",
      "inputs": [
        {
          "name": "account",
          "type": "address",
          "internalType": "address"
        },
        {
          "name": "operator",
          "type": "address",
          "internalType": "address"
        }
      ],
      "outputs": [
        {
          "name": "",
          "type": "bool",
          "internalType": "bool"
        }
      ],
      "stateMutability": "view"
    },
    {
      "type": "function",
      "name": "mergePositions",
      "inputs": [
        {
          "name": "collateralToken",
          "type": "address",
          "internalType": "contract IERC20"
        },
        {
          "name": "parentCollectionId",
          "type": "bytes32",
          "internalType": "bytes32"
        },
        {
          "name": "conditionId",
          "type": "bytes32",
          "internalType": "bytes32"
        },
        {
          "name": "partition",
          "type": "uint256[]",
          "internalType": "uint256[]"
        },
        {
          "name": "amount",
          "type": "uint256",
          "internalType": "uint256"
        }
      ],
      "outputs": [],
      "stateMutability": "nonpayable"
    },
    {
      "type": "function",
      "name": "payoutDenominator",
      "inputs": [
        {
          "name": "",
          "type": "bytes32",
          "internalType": "bytes32"
        }
      ],
      "outputs": [
        {
          "name": "",
          "type": "uint256",
          "internalType": "uint256"
        }
      ],
      "stateMutability": "view"
    },
    {
      "type": "function",
      "name": "payoutNumerators",
      "inputs": [
        {
          "name": "",
          "type": "bytes32",
          "internalType": "bytes32"
        },
        {
          "name": "",
          "type": "uint256",
          "internalType": "uint256"
        }
      ],
      "outputs": [
        {
          "name": "",
          "type": "uint256",
          "internalType": "uint256"
        }
      ],
      "stateMutability": "view"
    },
    {
      "type": "function",
      "name": "prepareCondition",
      "inputs": [
        {
          "name": "oracle",
          "type": "address",
          "internalType": "address"
        },
        {
          "name": "questionId",
          "type": "bytes32",
          "internalType": "bytes32"
        },
        {
          "name": "outcomeSlotCount",
          "type": "uint256",
          "internalType": "uint256"
        }
      ],
      "outputs": [],
      "stateMutability": "nonpayable"
    },
    {
      "type": "function",
      "name": "redeemPositions",
      "inputs": [
        {
          "name": "collateralToken",
          "type": "address",
          "internalType": "contract IERC20"
        },
        {
          "name": "parentCollectionId",
          "type": "bytes32",
          "internalType": "bytes32"
        },
        {
          "name": "conditionId",
          "type": "bytes32",
          "internalType": "bytes32"
        },
        {
          "name": "indexSets",
          "type": "uint256[]",
          "internalType": "uint256[]"
        }
      ],
      "outputs": [],
      "stateMutability": "nonpayable"
    },
    {
      "type": "function",
      "name": "reportPayouts",
      "inputs": [
        {
          "name": "questionId",
          "type": "bytes32",
          "internalType": "bytes32"
        },
        {
          "name": "payouts",
          "type": "uint256[]",
          "internalType": "uint256[]"
        }
      ],
      "outputs": [],
      "stateMutability": "nonpayable"
    },
    {
      "type": "function",
      "name": "safeBatchTransferFrom",
      "inputs": [
        {
          "name": "from",
          "type": "address",
          "internalType": "address"
        },
        {
          "name": "to",
          "type": "address",
          "internalType": "address"
        },
        {
          "name": "ids",
          "type": "uint256[]",
          "internalType": "uint256[]"
        },
        {
          "name": "values",
          "type": "uint256[]",
          "internalType": "uint256[]"
        },
        {
          "name": "data",
          "type": "bytes",
          "internalType": "bytes"
        }
      ],
      "outputs": [],
      "stateMutability": "nonpayable"
    },
    {
      "type": "function",
      "name": "safeTransferFrom",
      "inputs": [
        {
          "name": "from",
          "type": "address",
          "internalType": "address"
        },
        {
          "name": "to",
          "type": "address",
          "internalType": "address"
        },
        {
          "name": "id",
          "type": "uint256",
          "internalType": "uint256"
        },
        {
          "name": "value",
          "type": "uint256",
          "internalType": "uint256"
        },
        {
          "name": "data",
          "type": "bytes",
          "internalType": "bytes"
        }
      ],
      "outputs": [],
      "stateMutability": "nonpayable"
    },
    {
      "type": "function",
      "name": "setApprovalForAll",
      "inputs": [
        {
          "name": "operator",
          "type": "address",
          "internalType": "address"
        },
        {
          "name": "approved",
          "type": "bool",
          "internalType": "bool"
        }
      ],
      "outputs": [],
      "stateMutability": "nonpayable"
    },
    {
      "type": "function",
      "name": "splitPosition",
      "inputs": [
        {
          "name": "collateralToken",
          "type": "address",
          "internalType": "contract IERC20"
        },
        {
          "name": "parentCollectionId",
          "type": "bytes32",
          "internalType": "bytes32"
        },
        {
          "name": "conditionId",
          "type": "bytes32",
          "internalType": "bytes32"
        },
        {
          "name": "partition",
          "type": "uint256[]",
          "internalType": "uint256[]"
        },
        {
          "name": "amount",
          "type": "uint256",
          "internalType": "uint256"
        }
      ],
      "outputs": [],
      "stateMutability": "nonpayable"
    },
    {
      "type": "function",
      "name": "supportsInterface",
      "inputs": [
        {
          "name": "interfaceId",
          "type": "bytes4",
          "internalType": "bytes4"
        }
      ],
      "outputs": [
        {
          "name": "",
          "type": "bool",
          "internalType": "bool"
        }
      ],
      "stateMutability": "view"
    },
    {
      "type": "function",
      "name": "uri",
      "inputs": [
        {
          "name": "",
          "type": "uint256",
          "internalType": "uint256"
        }
      ],
      "outputs": [
        {
          "name": "",
          "type": "string",
          "internalType": "string"
        }
      ],
      "stateMutability": "view"
    },
    {
      "type": "event",
      "name": "ApprovalForAll",
      "inputs": [
        {
          "name": "account",
          "type": "address",
          "indexed": true,
          "internalType": "address"
        },
        {
          "name": "operator",
          "type": "address",
          "indexed": true,
          "internalType": "address"
        },
        {
          "name": "approved",
          "type": "bool",
          "indexed": false,
          "internalType": "bool"
        }
      ],
      "anonymous": false
    },
    {
      "type": "event",
      "name": "ConditionPreparation",
      "inputs": [
        {
          "name": "conditionId",
          "type": "bytes32",
          "indexed": true,
          "internalType": "bytes32"
        },
        {
          "name": "oracle",
          "type": "address",
          "indexed": true,
          "internalType": "address"
        },
        {
          "name": "questionId",
          "type": "bytes32",
          "indexed": true,
          "internalType": "bytes32"
        },
        {
          "name": "outcomeSlotCount",
          "type": "uint256",
          "indexed": false,
          "internalType": "uint256"
        }
      ],
      "anonymous": false
    },
    {
      "type": "event",
      "name": "ConditionResolution",
      "inputs": [
        {
          "name": "conditionId",
          "type": "bytes32",
          "indexed": true,
          "internalType": "bytes32"
        },
        {
          "name": "oracle",
          "type": "address",
          "indexed": true,
          "internalType": "address"
        },
        {
          "name": "questionId",
          "type": "bytes32",
          "indexed": true,
          "internalType": "bytes32"
        },
        {
          "name": "outcomeSlotCount",
          "type": "uint256",
          "indexed": false,
          "internalType": "uint256"
        },
        {
          "name": "payoutNumerators",
          "type": "uint256[]",
          "indexed": false,
          "internalType": "uint256[]"
        }
      ],
      "anonymous": false
    },
    {
      "type": "event",
      "name": "PayoutRedemption",
      "inputs": [
        {
          "name": "redeemer",
          "type": "address",
          "indexed": true,
          "internalType": "address"
        },
        {
          "name": "collateralToken",
          "type": "address",
          "indexed": true,
          "internalType": "contract IERC20"
        },
        {
          "name": "parentCollectionId",
          "type": "bytes32",
          "indexed": true,
          "internalType": "bytes32"
        },
        {
          "name": "conditionId",
          "type": "bytes32",
          "indexed": false,
          "internalType": "bytes32"
        },
        {
          "name": "indexSets",
          "type": "uint256[]",
          "indexed": false,
          "internalType": "uint256[]"
        },
        {
          "name": "payout",
          "type": "uint256",
          "indexed": false,
          "internalType": "uint256"
        }
      ],
      "anonymous": false
    },
    {
      "type": "event",
      "name": "PositionSplit",
      "inputs": [
        {
          "name": "stakeholder",
          "type": "address",
          "indexed": true,
          "internalType": "address"
        },
        {
          "name": "collateralToken",
          "type": "address",
          "indexed": false,
          "internalType": "contract IERC20"
        },
        {
          "name": "parentCollectionId",
          "type": "bytes32",
          "indexed": true,
          "internalType": "bytes32"
        },
        {
          "name": "conditionId",
          "type": "bytes32",
          "indexed": true,
          "internalType": "bytes32"
        },
        {
          "name": "partition",
          "type": "uint256[]",
          "indexed": false,
          "internalType": "uint256[]"
        },
        {
          "name": "amount",
          "type": "uint256",
          "indexed": false,
          "internalType": "uint256"
        }
      ],
      "anonymous": false
    },
    {
      "type": "event",
      "name": "PositionsMerge",
      "inputs": [
        {
          "name": "stakeholder",
          "type": "address",
          "indexed": true,
          "internalType": "address"
        },
        {
          "name": "collateralToken",
          "type": "address",
          "indexed": false,
          "internalType": "contract IERC20"
        },
        {
          "name": "parentCollectionId",
          "type": "bytes32",
          "indexed": true,
          "internalType": "bytes32"
        },
        {
          "name": "conditionId",
          "type": "bytes32",
          "indexed": true,
          "internalType": "bytes32"
        },
        {
          "name": "partition",
          "type": "uint256[]",
          "indexed": false,
          "internalType": "uint256[]"
        },
        {
          "name": "amount",
          "type": "uint256",
          "indexed": false,
          "internalType": "uint256"
        }
      ],
      "anonymous": false
    },
    {
      "type": "event",
      "name": "TransferBatch",
      "inputs": [
        {
          "name": "operator",
          "type": "address",
          "indexed": true,
          "internalType": "address"
        },
        {
          "name": "from",
          "type": "address",
          "indexed": true,
          "internalType": "address"
        },
        {
          "name": "to",
          "type": "address",
          "indexed": true,
          "internalType": "address"
        },
        {
          "name": "ids",
          "type": "uint256[]",
          "indexed": false,
          "internalType": "uint256[]"
        },
        {
          "name": "values",
          "type": "uint256[]",
          "indexed": false,
          "internalType": "uint256[]"
        }
      ],
      "anonymous": false
    },
    {
      "type": "event",
      "name": "TransferSingle",
      "inputs": [
        {
          "name": "operator",
          "type": "address",
          "indexed": true,
          "internalType": "address"
        },
        {
          "name": "from",
          "type": "address",
          "indexed": true,
          "internalType": "address"
        },
        {
          "name": "to",
          "type": "address",
          "indexed": true,
          "internalType": "address"
        },
        {
          "name": "id",
          "type": "uint256",
          "indexed": false,
          "internalType": "uint256"
        },
        {
          "name": "value",
          "type": "uint256",
          "indexed": false,
          "internalType": "uint256"
        }
      ],
      "anonymous": false
    },
    {
      "type": "event",
      "name": "URI",
      "inputs": [
        {
          "name": "value",
          "type": "string",
          "indexed": false,
          "internalType": "string"
        },
        {
          "name": "id",
          "type": "uint256",
          "indexed": true,
          "internalType": "uint256"
        }
      ],
      "anonymous": false
    },
    {
      "type": "error",
      "name": "ERC1155InsufficientBalance",
      "inputs": [
        {
          "name": "sender",
          "type": "address",
          "internalType": "address"
        },
        {
          "name": "balance",
          "type": "uint256",
          "internalType": "uint256"
        },
        {
          "name": "needed",
          "type": "uint256",
          "internalType": "uint256"
        },
        {
          "name": "tokenId",
          "type": "uint256",
          "internalType": "uint256"
        }
      ]
    },
    {
      "type": "error",
      "name": "ERC1155InvalidApprover",
      "inputs": [
        {
          "name": "approver",
          "type": "address",
          "internalType": "address"
        }
      ]
    },
    {
      "type": "error",
      "name": "ERC1155InvalidArrayLength",
      "inputs": [
        {
          "name": "idsLength",
          "type": "uint256",
          "internalType": "uint256"
        },
        {
          "name": "valuesLength",
          "type": "uint256",
          "internalType": "uint256"
        }
      ]
    },
    {
      "type": "error",
      "name": "ERC1155InvalidOperator",
      "inputs": [
        {
          "name": "operator",
          "type": "address",
          "internalType": "address"
        }
      ]
    },
    {
      "type": "error",
      "name": "ERC1155InvalidReceiver",
      "inputs": [
        {
          "name": "receiver",
          "type": "address",
          "internalType": "address"
        }
      ]
    },
    {
      "type": "error",
      "name": "ERC1155InvalidSender",
      "inputs": [
        {
          "name": "sender",
          "type": "address",
          "internalType": "address"
        }
      ]
    },
    {
      "type": "error",
      "name": "ERC1155MissingApprovalForAll",
      "inputs": [
        {
          "name": "operator",
          "type": "address",
          "internalType": "address"
        },
        {
          "name": "owner",
          "type": "address",
          "internalType": "address"
        }
      ]
    }
  ],
  "bytecode": {
    "object": "0x608060405234610027576100116100df565b61001961002c565b614665610361823961466590f35b610032565b60405190565b5f80fd5b601f801991011690565b634e487b7160e01b5f52604160045260245ffd5b9061005e90610036565b810190811060018060401b0382111761007657604052565b610040565b9061008e61008761002c565b9283610054565b565b60018060401b0381116100ac576100a8602091610036565b0190565b610040565b906100c36100be83610090565b61007b565b918252565b6100d15f6100b1565b90565b6100dc6100c8565b90565b6100ef6100ea6100d4565b6100f1565b565b6100fa90610353565b565b5190565b634e487b7160e01b5f52602260045260245ffd5b9060016002830492168015610134575b602083101461012f57565b610100565b91607f1691610124565b5f5260205f2090565b601f602091010490565b1b90565b9190600861017091029161016a5f1984610151565b92610151565b9181191691161790565b90565b90565b61019461018f6101999261017a565b61017d565b61017a565b90565b90565b91906101b56101b06101bd93610180565b61019c565b908354610155565b9055565b5f90565b6101d7916101d16101c1565b9161019f565b565b5b8181106101e5575050565b806101f25f6001936101c5565b016101da565b9190601f8111610208575b505050565b6102146102399361013e565b90602061022084610147565b83019310610241575b61023290610147565b01906101d9565b5f8080610203565b915061023281929050610229565b1c90565b90610263905f199060080261024f565b191690565b8161027291610253565b906002021790565b90610284816100fc565b9060018060401b038211610342576102a6826102a08554610114565b856101f8565b602090601f83116001146102da579180916102c9935f926102ce575b5050610268565b90555b565b90915001515f806102c2565b601f198316916102e98561013e565b925f5b81811061032a57509160029391856001969410610310575b505050020190556102cc565b610320910151601f841690610253565b90555f8080610304565b919360206001819287870151815501950192016102ec565b610040565b906103519161027a565b565b61035e906002610347565b56fe60806040526004361015610013575b610f68565b61001d5f3561014b565b8062fdd58e1461014657806301b7037c1461014157806301ffc9a71461013c5780630504c814146101375780630e89341c146101325780632eb2c2d61461012d57806339dd7530146101285780634e1273f41461012357806372ce42751461011e578063852c6ae214610119578063856296f7146101145780639e7212ad1461010f578063a22cb4651461010a578063c49298ac14610105578063d42dc0c214610100578063d96ee754146100fb578063dd34de67146100f6578063e985e9c5146100f15763f242432a0361000e57610f31565b610e8c565b610e2a565b610dc7565b610d92565b610d40565b610cc6565b610c3c565b610c06565b610b96565b610b00565b610a5b565b610892565b61082e565b6105e6565b610527565b6103f8565b61034d565b610212565b60e01c90565b60405190565b5f80fd5b5f80fd5b5f80fd5b60018060a01b031690565b61017790610163565b90565b6101838161016e565b0361018a57565b5f80fd5b9050359061019b8261017a565b565b90565b6101a98161019d565b036101b057565b5f80fd5b905035906101c1826101a0565b565b91906040838203126101eb57806101df6101e8925f860161018e565b936020016101b4565b90565b61015b565b6101f99061019d565b9052565b9190610210905f602085019401906101f0565b565b346102435761023f61022e6102283660046101c3565b90611015565b610236610151565b918291826101fd565b0390f35b610157565b6102519061016e565b90565b61025d81610248565b0361026457565b5f80fd5b9050359061027582610254565b565b90565b61028381610277565b0361028a57565b5f80fd5b9050359061029b8261027a565b565b5f80fd5b5f80fd5b5f80fd5b909182601f830112156102e35781359167ffffffffffffffff83116102de5760200192602083028401116102d957565b6102a5565b6102a1565b61029d565b90608082820312610343576102ff815f8401610268565b9261030d826020850161028e565b9261031b836040830161028e565b92606082013567ffffffffffffffff811161033e5761033a92016102a9565b9091565b61015f565b61015b565b5f0190565b3461037f576103696103603660046102e8565b9392909261154b565b610371610151565b8061037b81610348565b0390f35b610157565b63ffffffff60e01b1690565b61039981610384565b036103a057565b5f80fd5b905035906103b182610390565b565b906020828203126103cc576103c9915f016103a4565b90565b61015b565b151590565b6103df906103d1565b9052565b91906103f6905f602085019401906103d6565b565b346104285761042461041361040e3660046103b3565b611905565b61041b610151565b918291826103e3565b0390f35b610157565b91906040838203126104555780610449610452925f860161028e565b936020016101b4565b90565b61015b565b61046390610277565b90565b906104709061045a565b5f5260205260405f2090565b634e487b7160e01b5f52603260045260245ffd5b5490565b5f5260205f2090565b6104a681610490565b8210156104c0576104b8600191610494565b910201905f90565b61047c565b1c90565b90565b6104dc9060086104e193026104c5565b6104c9565b90565b906104ef91546104cc565b90565b6104fd906003610466565b61050681610490565b821015610523576105209161051a9161049d565b906104e4565b90565b5f80fd5b346105585761055461054361053d36600461042d565b906104f2565b61054b610151565b918291826101fd565b0390f35b610157565b9060208282031261057657610573915f016101b4565b90565b61015b565b5190565b60209181520190565b90825f9392825e0152565b601f801991011690565b6105bc6105c56020936105ca936105b38161057b565b9384809361057f565b95869101610588565b610593565b0190565b6105e39160208201915f81840391015261059d565b90565b34610616576106126106016105fc36600461055d565b611a89565b610609610151565b918291826105ce565b0390f35b610157565b634e487b7160e01b5f52604160045260245ffd5b9061063990610593565b810190811067ffffffffffffffff82111761065357604052565b61061b565b9061066b610664610151565b928361062f565b565b67ffffffffffffffff81116106855760208091020190565b61061b565b9092919261069f61069a8261066d565b610658565b93818552602080860192028301928184116106dc57915b8383106106c35750505050565b602080916106d184866101b4565b8152019201916106b6565b6102a5565b9080601f830112156106ff578160206106fc9335910161068a565b90565b61029d565b5f80fd5b67ffffffffffffffff811161072657610722602091610593565b0190565b61061b565b90825f939282370152565b9092919261074b61074682610708565b610658565b93818552602085019082840111610767576107659261072b565b565b610704565b9080601f8301121561078a5781602061078793359101610736565b90565b61029d565b91909160a081840312610829576107a8835f830161018e565b926107b6816020840161018e565b92604083013567ffffffffffffffff811161082457826107d79185016106e1565b92606081013567ffffffffffffffff811161081f57836107f89183016106e1565b92608082013567ffffffffffffffff811161081a57610817920161076c565b90565b61015f565b61015f565b61015f565b61015b565b346108605761084a61084136600461078f565b93929092611ac3565b610852610151565b8061085c81610348565b0390f35b610157565b919060408382031261088d578061088161088a925f8601610268565b9360200161028e565b90565b61015b565b346108c3576108bf6108ae6108a8366004610865565b90611b3c565b6108b6610151565b918291826101fd565b0390f35b610157565b67ffffffffffffffff81116108e05760208091020190565b61061b565b909291926108fa6108f5826108c8565b610658565b938185526020808601920283019281841161093757915b83831061091e5750505050565b6020809161092c848661018e565b815201920191610911565b6102a5565b9080601f8301121561095a57816020610957933591016108e5565b90565b61029d565b9190916040818403126109b7575f81013567ffffffffffffffff81116109b2578361098b91830161093c565b92602082013567ffffffffffffffff81116109ad576109aa92016106e1565b90565b61015f565b61015f565b61015b565b5190565b60209181520190565b60200190565b6109d89061019d565b9052565b906109e9816020936109cf565b0190565b60200190565b90610a10610a0a610a03846109bc565b80936109c0565b926109c9565b905f5b818110610a205750505090565b909192610a39610a3360019286516109dc565b946109ed565b9101919091610a13565b610a589160208201915f8184039101526109f3565b90565b34610a8c57610a88610a77610a7136600461095f565b90611bef565b610a7f610151565b91829182610a43565b0390f35b610157565b9160a083830312610afb57610aa8825f8501610268565b92610ab6836020830161028e565b92610ac4816040840161028e565b92606083013567ffffffffffffffff8111610af657610ae883610af39286016102a9565b9390946080016101b4565b90565b61015f565b61015b565b34610b3557610b1f610b13366004610a91565b9493909392919261227e565b610b27610151565b80610b3181610348565b0390f35b610157565b9091606082840312610b6f57610b6c610b55845f850161018e565b93610b63816020860161028e565b936040016101b4565b90565b61015b565b610b7d90610277565b9052565b9190610b94905f60208501940190610b74565b565b34610bc757610bc3610bb2610bac366004610b3a565b916127b7565b610bba610151565b91829182610b81565b0390f35b610157565b9091606082840312610c0157610bfe610be7845f850161028e565b93610bf5816020860161028e565b936040016101b4565b90565b61015b565b34610c3757610c33610c22610c1c366004610bcc565b916127d0565b610c2a610151565b91829182610b81565b0390f35b610157565b34610c7157610c5b610c4f366004610a91565b9493909392919261286a565b610c63610151565b80610c6d81610348565b0390f35b610157565b610c7f816103d1565b03610c8657565b5f80fd5b90503590610c9782610c76565b565b9190604083820312610cc15780610cb5610cbe925f860161018e565b93602001610c8a565b90565b61015b565b34610cf557610cdf610cd9366004610c99565b90612ba8565b610ce7610151565b80610cf181610348565b0390f35b610157565b919091604081840312610d3b57610d13835f830161028e565b92602082013567ffffffffffffffff8111610d3657610d3292016102a9565b9091565b61015f565b61015b565b34610d6f57610d59610d53366004610cfa565b91612f7e565b610d61610151565b80610d6b81610348565b0390f35b610157565b90602082820312610d8d57610d8a915f0161028e565b90565b61015b565b34610dc257610dbe610dad610da8366004610d74565b613167565b610db5610151565b918291826101fd565b0390f35b610157565b34610df657610de0610dda366004610b3a565b916133df565b610de8610151565b80610df281610348565b0390f35b610157565b90610e059061045a565b5f5260205260405f2090565b610e2790610e226004915f92610dfb565b6104e4565b90565b34610e5a57610e56610e45610e40366004610d74565b610e11565b610e4d610151565b918291826101fd565b0390f35b610157565b9190604083820312610e875780610e7b610e84925f860161018e565b9360200161018e565b90565b61015b565b34610ebd57610eb9610ea8610ea2366004610e5f565b90613522565b610eb0610151565b918291826103e3565b0390f35b610157565b91909160a081840312610f2c57610edb835f830161018e565b92610ee9816020840161018e565b92610ef782604085016101b4565b92610f0583606083016101b4565b92608082013567ffffffffffffffff8111610f2757610f24920161076c565b90565b61015f565b61015b565b34610f6357610f4d610f44366004610ec2565b9392909261354a565b610f55610151565b80610f5f81610348565b0390f35b610157565b5f80fd5b5f90565b90565b610f87610f82610f8c9261019d565b610f70565b61019d565b90565b90610f9990610f73565b5f5260205260405f2090565b610fb9610fb4610fbe92610163565b610f70565b610163565b90565b610fca90610fa5565b90565b610fd690610fc1565b90565b90610fe390610fcd565b5f5260205260405f2090565b5f1c90565b61100061100591610fef565b6104c9565b90565b6110129054610ff4565b90565b6110349061102f61103993611028610f6c565b505f610f8f565b610fd9565b611008565b90565b90565b61105361104e6110589261103c565b610f70565b61019d565b90565b60207f6420796574000000000000000000000000000000000000000000000000000000917f726573756c7420666f7220636f6e646974696f6e206e6f7420726563656976655f8201520152565b6110b5602560409261057f565b6110be8161105b565b0190565b6110d79060208101905f8183039101526110a8565b90565b156110e157565b6110e9610151565b62461bcd60e51b8152806110ff600482016110c2565b0390fd5b5f7f636f6e646974696f6e206e6f7420707265706172656420796574000000000000910152565b611137601a60209261057f565b61114081611103565b0190565b6111599060208101905f81830391015261112a565b90565b1561116357565b61116b610151565b62461bcd60e51b81528061118160048201611144565b0390fd5b90565b61119c6111976111a192611185565b610f70565b61019d565b90565b1b90565b6111c7906111c16111bb6111cc9461019d565b9161019d565b906111a4565b61019d565b90565b634e487b7160e01b5f52601160045260245ffd5b6111f26111f89193929361019d565b9261019d565b820391821161120357565b6111cf565b6001611214910161019d565b90565b5090565b919081101561122b576020020190565b61047c565b3561123a816101a0565b90565b5f7f676f7420696e76616c696420696e646578207365740000000000000000000000910152565b611271601560209261057f565b61127a8161123d565b0190565b6112939060208101905f818303910152611264565b90565b1561129d57565b6112a5610151565b62461bcd60e51b8152806112bb6004820161127e565b0390fd5b6112ce6112d49193929361019d565b9261019d565b82018092116112df57565b6111cf565b906112ef910261019d565b90565b634e487b7160e01b5f52601260045260245ffd5b6113126113189161019d565b9161019d565b908115611323570490565b6112f2565b5f1b90565b61134161133c6113469261103c565b611328565b610277565b90565b67ffffffffffffffff811161136757611363602091610593565b0190565b61061b565b9061137e61137983611349565b610658565b918252565b61138c5f61136c565b90565b611397611383565b90565b6113a390610fc1565b90565b60e01b90565b905051906113b982610c76565b565b906020828203126113d4576113d1915f016113ac565b90565b61015b565b6113e29061016e565b9052565b91602061140792949361140060408201965f8301906113d9565b01906101f0565b565b611411610151565b3d5f823e3d90fd5b60207f736167652073656e646572000000000000000000000000000000000000000000917f636f756c64206e6f74207472616e73666572207061796f757420746f206d65735f8201520152565b611473602b60409261057f565b61147c81611419565b0190565b6114959060208101905f818303910152611466565b90565b1561149f57565b6114a7610151565b62461bcd60e51b8152806114bd60048201611480565b0390fd5b6114ca90610fa5565b90565b6114d6906114c1565b90565b5f80fd5b9037565b9091826114ed916109c0565b9160018060fb1b038111611510578291602061150c92029384916114dd565b0190565b6114d9565b949391604091611549946115419261153460608a01935f8b0190610b74565b88830360208a01526114e1565b9401906101f0565b565b9493929361156361155e60048590610dfb565b611008565b956115808761157a6115745f61103f565b9161019d565b116110da565b61159461158f60038690610466565b610490565b956115b1876115ab6115a55f61103f565b9161019d565b1161115c565b6115ba5f61103f565b906115e26115d260016115cd8b91611188565b6111a8565b6115dc6001611188565b906111e3565b6115eb5f61103f565b945b8561160a6116046115ff868d90611217565b61019d565b9161019d565b10156117ab5761162461161f848b899161121b565b611230565b96876116386116325f61103f565b9161019d565b118061178c575b61164890611296565b61165e86611658838c8c91613628565b906136da565b956116685f61103f565b9a6116725f61103f565b5b8d611687611681839261019d565b9161019d565b10156116fe578a6116a2600161169d8491611188565b6111a8565b166116b56116af5f61103f565b9161019d565b036116c9575b6116c490611208565b611673565b9b6116f68c6116f08f6116ea906116e56116c496946003610466565b61049d565b906104e4565b906112bf565b9c90506116bb565b5094939850949990959691968c611716338390611015565b928361172a6117245f61103f565b9161019d565b1161174a575b5050505061173d90611208565b94979293959091976115ed565b839c611773611783949361176e6117799461173d9998611768610f6c565b506112e4565b611306565b906112bf565b9b33919091613754565b905f8c81611730565b50611648886117a361179d8661019d565b9161019d565b10905061163f565b9950509193949592509550856117c96117c35f61103f565b9161019d565b1161182c575b6118273393949591929661181561180f6118097f2682012a4a4f1973119f1c9b90745d1bd91fa2bab387344f044cb3586864d18d97610fcd565b976114cd565b9761045a565b9761181e610151565b94859485611515565b0390a4565b8361184761184161183c5f61132d565b610277565b91610277565b145f146118dd576118578361139a565b602063a9059cbb91339061187e5f8b95611889611872610151565b978896879586946113a6565b8452600484016113e6565b03925af180156118d8576118a4915f916118aa575b50611498565b5b6117cf565b6118cb915060203d81116118d1575b6118c3818361062f565b8101906113bb565b5f61189e565b503d6118b9565b611409565b6118fc336118ec8587906136da565b88906118f661138f565b926137c4565b6118a5565b5f90565b61190d611901565b5080611928611922636cdb3d1360e11b610384565b91610384565b14801561194c575b90811561193c575b5090565b6119469150613831565b5f611938565b50806119676119616303a24d0760e21b610384565b91610384565b14611930565b606090565b634e487b7160e01b5f52602260045260245ffd5b90600160028304921680156119a6575b60208310146119a157565b611972565b91607f1691611996565b60209181520190565b5f5260205f2090565b905f92918054906119dc6119d583611986565b80946119b0565b916001811690815f14611a3357506001146119f7575b505050565b611a0491929394506119b9565b915f925b818410611a1b57505001905f80806119f2565b60018160209295939554848601520191019290611a08565b92949550505060ff19168252151560200201905f80806119f2565b90611a58916119c2565b90565b90611a7b611a7492611a6b610151565b93848092611a4e565b038361062f565b565b611a8690611a5b565b90565b50611a9261196d565b50611a9d6002611a7d565b90565b916020611ac1929493611aba60408201965f8301906113d9565b01906113d9565b565b949391929092611ad161385b565b86611ae4611ade8361016e565b9161016e565b141580611b22575b611b025750611b0094959390919293613868565b565b8690611b1e5f92839263711bec9160e11b845260048401611aa0565b0390fd5b50611b37611b31888390613522565b156103d1565b611aec565b90611b4f91611b49610f6c565b506136da565b90565b606090565b5190565b916020611b7c929493611b7560408201965f8301906101f0565b01906101f0565b565b90611b90611b8b8361066d565b610658565b918252565b369037565b90611bbf611ba783611b7e565b92602080611bb5869361066d565b9201910390611b95565b565b90611bcb826109bc565b811015611bdc576020809102010190565b61047c565b90611beb9061019d565b9052565b90611bf8611b52565b50611c0282611b57565b611c1c611c16611c11846109bc565b61019d565b9161019d565b03611ca657611c32611c2d83611b57565b611b9a565b91611c3c5f61103f565b5b80611c58611c52611c4d85611b57565b61019d565b9161019d565b1015611ca057611c9b90611c96611c84611c7385849061390a565b611c7e878590613920565b90611015565b611c918791849092611bc1565b611be1565b611208565b611c3d565b50505090565b611cb2611cb8916109bc565b91611b57565b90611cd35f928392635b05999160e01b845260048401611b5b565b0390fd5b5f7f676f7420656d707479206f722073696e676c65746f6e20706172746974696f6e910152565b611d0a6020809261057f565b611d1381611cd7565b0190565b611d2c9060208101905f818303910152611cfe565b90565b15611d3657565b611d3e610151565b62461bcd60e51b815280611d5460048201611d17565b0390fd5b5f7f6f7574636f6d65536c6f74436f756e7400000000000000000000000000000000910152565b611d89601061136c565b90611d9660208301611d58565b565b611da0611d7f565b90565b5f7f66756c6c496e6465785365740000000000000000000000000000000000000000910152565b611dd4600c61136c565b90611de160208301611da3565b565b611deb611dca565b90565b5f7f66726565496e6465785365740000000000000000000000000000000000000000910152565b611e1f600c61136c565b90611e2c60208301611dee565b565b611e36611e15565b90565b5f7f706172746974696f6e206e6f74206469736a6f696e7400000000000000000000910152565b611e6d601660209261057f565b611e7681611e39565b0190565b611e8f9060208101905f818303910152611e60565b90565b15611e9957565b611ea1610151565b62461bcd60e51b815280611eb760048201611e7a565b0390fd5b5f7f706f736974696f6e4964732e6c656e6774680000000000000000000000000000910152565b611eec601261136c565b90611ef960208301611ebb565b565b611f03611ee2565b90565b5f7f616d6f756e74732e6c656e677468000000000000000000000000000000000000910152565b611f37600e61136c565b90611f4460208301611f06565b565b611f4e611f2d565b90565b5f7f7265717569726573207472616e73666572000000000000000000000000000000910152565b611f82601161136c565b90611f8f60208301611f51565b565b611f99611f78565b90565b90505190611fa9826101a0565b565b90602082820312611fc457611fc1915f01611f9c565b90565b61015b565b9190611fdc905f602085019401906113d9565b565b5f7f62616c616e636500000000000000000000000000000000000000000000000000910152565b61200f600761136c565b9061201c60208301611fde565b565b612026612005565b90565b61203290610fc1565b90565b5f7f616c6c6f77616e63650000000000000000000000000000000000000000000000910152565b612066600961136c565b9061207360208301612035565b565b61207d61205c565b90565b5f7f495320544849532045584348414e47453f000000000000000000000000000000910152565b6120b1601161136c565b906120be60208301612080565b565b6120c86120a7565b90565b6040906120f46120fb94969593966120ea60608401985f8501906113d9565b60208301906113d9565b01906101f0565b565b60207f656e730000000000000000000000000000000000000000000000000000000000917f636f756c64206e6f74207265636569766520636f6c6c61746572616c20746f6b5f8201520152565b612157602360409261057f565b612160816120fd565b0190565b6121799060208101905f81830391015261214a565b90565b1561218357565b61218b610151565b62461bcd60e51b8152806121a160048201612164565b0390fd5b5f7f6d73672e73656e64657200000000000000000000000000000000000000000000910152565b6121d6600a61136c565b906121e3602083016121a5565b565b6121ed6121cc565b90565b5f7f6d696e7465642062617463680000000000000000000000000000000000000000910152565b612221600c61136c565b9061222e602083016121f0565b565b612238612217565b90565b6122449061139a565b9052565b94939160409161227c946122749261226760608a01935f8b019061223b565b88830360208a01526114e1565b9401906101f0565b565b9594959392939190916122ae612295868690611217565b6122a86122a26001611188565b9161019d565b11611d2f565b6123146123046122c86122c360038690610466565b610490565b6122d9816122d4611d98565b61395c565b6122f5816122ef6122e95f61103f565b9161019d565b1161115c565b6122ff6001611188565b6111a8565b61230e6001611188565b906111e3565b9061232682612321611de3565b61395c565b8161233881612333611e2e565b61395c565b61234b612346888890611217565b611b9a565b9561235f61235a898390611217565b611b9a565b976123695f61103f565b5b8061238761238161237c858790611217565b61019d565b9161019d565b101561245657612432906124176124056123ab6123a68688869161121b565b611230565b96876123bf6123b95f61103f565b9161019d565b1180612437575b6123cf90611296565b6123ed8882166123e76123e18b61019d565b9161019d565b14611e92565b8718966123ff89918d908d9091613628565b906136da565b6124128c91849092611bc1565b611be1565b61242d8d6124288d91849092611bc1565b611be1565b611208565b61236a565b506123cf8861244e6124488d61019d565b9161019d565b1090506123c6565b50979295939094969199989961247b61246e846109bc565b612476611efb565b61395c565b612494612487856109bc565b61248f611f46565b61395c565b806124a76124a15f61103f565b9161019d565b145f14612783575050826124cb6124c56124c05f61132d565b610277565b91610277565b145f14612764576124e26124dd611f91565b61399e565b61251a60206124f08761139a565b6370a082319061250f3392612503610151565b958694859384936113a6565b835260048301611fc9565b03915afa801561275f5761253d915f91612731575b5061253861201e565b61395c565b6125468561139a565b91602063dd62ed3e93339061257561255d30612029565b96612580612569610151565b988995869485946113a6565b845260048401611aa0565b03915afa92831561272c5789936125a6915f916126fe575b506125a1612075565b61395c565b6125bf6125b230612029565b6125ba6120c0565b613a05565b60206125ca8761139a565b6323b872dd906125f75f33936126026125e230612029565b996125eb610151565b9a8b97889687956113a6565b8552600485016120cb565b03925af19283156126f95761265e93612622915f916126cb575b5061217c565b5b5b61263d612630836109bc565b612638611efb565b61395c565b61264e336126496121e5565b613a05565b339161265861138f565b92613a47565b61266e612669612230565b61399e565b6126c6339391949592966126b46126ae6126a87f2e6bb91f8cbcda0c93623c54d0403a43514fabc40084ec96b6d5379a7478629897610fcd565b9761045a565b9761045a565b976126bd610151565b94859485612248565b0390a4565b6126ec915060203d81116126f2575b6126e4818361062f565b8101906113bb565b5f61261c565b503d6126da565b611409565b61271f915060203d8111612725575b612717818361062f565b810190611fab565b5f612598565b503d61270d565b611409565b612752915060203d8111612758575b61274a818361062f565b810190611fab565b5f61252f565b503d612740565b611409565b61265e9161277e336127778887906136da565b8b91613754565b612623565b61265e93916127a76127ae926127a18b33948c938b92911891613628565b906136da565b8b91613754565b612624565b5f90565b916127cd926127c46127b3565b50919091613aec565b90565b916127e6926127dd6127b3565b50919091613628565b90565b5f7f636f756c64206e6f742073656e6420636f6c6c61746572616c20746f6b656e73910152565b61281c6020809261057f565b612825816127e9565b0190565b61283e9060208101905f818303910152612810565b90565b1561284857565b612850610151565b62461bcd60e51b81528061286660048201612829565b0390fd5b9594929161289561287c848790611217565b61288f6128896001611188565b9161019d565b11611d2f565b6128ea6128da6128af6128aa60038590610466565b610490565b6128cb816128c56128bf5f61103f565b9161019d565b1161115c565b6128d56001611188565b6111a8565b6128e46001611188565b906111e3565b80956128ff6128fa868390611217565b611b9a565b9461291361290e828490611217565b611b9a565b9761291d5f61103f565b905b8161293c612936612931868890611217565b61019d565b9161019d565b1015612a135782916129d06129be6129eb938f97966129686129636129b8928a889161121b565b611230565b918261297c6129765f61103f565b9161019d565b11806129f3575b61298c90611296565b6129aa8382166129a461299e8661019d565b9161019d565b14611e92565b821898918c908c9091613628565b906136da565b6129cb8b91849092611bc1565b611be1565b6129e68a6129e18d91849092611bc1565b611be1565b611208565b90919261291f565b5061298c8b612a0b612a05869261019d565b9161019d565b109050612983565b92959497999a969050612a2a919833919091613b38565b80612a3d612a375f61103f565b9161019d565b145f14612b7457505080612a61612a5b612a565f61132d565b610277565b91610277565b145f14612b5057612a718361139a565b602063a9059cbb913390612a985f8b95612aa3612a8c610151565b978896879586946113a6565b8452600484016113e6565b03925af18015612b4b57612abe915f91612b1d575b50612841565b5b5b612b1833939194959296612b06612b00612afa7f6f13ca62553fcc2bcd2372180a43949c1e4cebba603901ede2f4e14f36b282ca97610fcd565b9761045a565b9761045a565b97612b0f610151565b94859485612248565b0390a4565b612b3e915060203d8111612b44575b612b36818361062f565b8101906113bb565b5f612ab8565b503d612b2c565b611409565b612b6f33612b5f8584906136da565b8890612b6961138f565b926137c4565b612abf565b612b93612ba392612b8d3393889287918b911891613628565b906136da565b8890612b9d61138f565b926137c4565b612ac0565b612bbc91612bb461385b565b919091613be6565b565b60207f74636f6d6520736c6f7400000000000000000000000000000000000000000000917f74686572652073686f756c64206265206d6f7265207468616e206f6e65206f755f8201520152565b612c18602a60409261057f565b612c2181612bbe565b0190565b612c3a9060208101905f818303910152612c0b565b90565b15612c4457565b612c4c610151565b62461bcd60e51b815280612c6260048201612c25565b0390fd5b5f7f636f6e646974696f6e206e6f74207072657061726564206f7220666f756e6400910152565b612c9a601f60209261057f565b612ca381612c66565b0190565b612cbc9060208101905f818303910152612c8d565b90565b15612cc657565b612cce610151565b62461bcd60e51b815280612ce460048201612ca7565b0390fd5b5f7f7061796f75742064656e6f6d696e61746f7220616c7265616479207365740000910152565b612d1c601e60209261057f565b612d2581612ce8565b0190565b612d3e9060208101905f818303910152612d0f565b90565b15612d4857565b612d50610151565b62461bcd60e51b815280612d6660048201612d29565b0390fd5b5f7f7061796f7574206e756d657261746f7220616c72656164792073657400000000910152565b612d9e601c60209261057f565b612da781612d6a565b0190565b612dc09060208101905f818303910152612d91565b90565b15612dca57565b612dd2610151565b62461bcd60e51b815280612de860048201612dab565b0390fd5b91906008612e07910291612e015f19846111a4565b926111a4565b9181191691161790565b90565b9190612e2a612e25612e3293610f73565b612e11565b908354612dec565b9055565b5f7f7061796f757420697320616c6c207a65726f6573000000000000000000000000910152565b612e6a601460209261057f565b612e7381612e36565b0190565b612e8c9060208101905f818303910152612e5d565b90565b15612e9657565b612e9e610151565b62461bcd60e51b815280612eb460048201612e77565b0390fd5b90612ec45f1991611328565b9181191691161790565b90612ee3612ede612eea92610f73565b612e11565b8254612eb8565b9055565b612ef89054610ff4565b90565b60010190565b90612f1e612f18612f1184610490565b80936109c0565b92610494565b905f5b818110612f2e5750505090565b909192612f4e612f48600192612f4387612eee565b6109dc565b94612efb565b9101919091612f21565b91612f7b92612f6e60408201935f8301906101f0565b6020818403910152612f01565b90565b91929092612f8d848290611217565b93612fab85612fa5612f9f6001611188565b9161019d565b11612c3d565b612fb733858791613aec565b92612fe7612fcf612fca60038790610466565b610490565b612fe1612fdb8961019d565b9161019d565b14612cbf565b613016612ffe612ff960048790610dfb565b611008565b61301061300a5f61103f565b9161019d565b14612d41565b61301f5f61103f565b956130295f61103f565b5b8061303d6130378461019d565b9161019d565b10156130ca576130c5906130c061306961306161305c888a869161121b565b611230565b9a8b906112bf565b996130a461308c61308661307f60038d90610466565b869061049d565b906104e4565b61309e6130985f61103f565b9161019d565b14612dc3565b6130ba6130b360038b90610466565b849061049d565b90612e14565b611208565b61302a565b50939492509461310291506130f1816130eb6130e55f61103f565b9161019d565b11612e8f565b6130fd60048690610dfb565b612ece565b82613111339293946003610466565b61314d6131476131417fb44d84d3289691f71497564b85d4233648d9dbae8cbdbb4329f301c3a01858949461045a565b94610fcd565b9461045a565b94613162613159610151565b92839283612f58565b0390a4565b61317e61318391613176610f6c565b506003610466565b610490565b90565b90565b61319d6131986131a292613186565b610f70565b61019d565b90565b5f7f746f6f206d616e79206f7574636f6d6520736c6f747300000000000000000000910152565b6131d9601660209261057f565b6131e2816131a5565b0190565b6131fb9060208101905f8183039101526131cc565b90565b1561320557565b61320d610151565b62461bcd60e51b815280613223600482016131e6565b0390fd5b5f7f636f6e646974696f6e20616c7265616479207072657061726564000000000000910152565b61325b601a60209261057f565b61326481613227565b0190565b61327d9060208101905f81830391015261324e565b90565b1561328757565b61328f610151565b62461bcd60e51b8152806132a560048201613268565b0390fd5b600190818003010490565b6132c6916132c0610f6c565b91612e14565b565b5b8181106132d4575050565b806132e15f6001936132b4565b016132c9565b90918281106132f6575b505050565b61331461330e61330861331f956132a9565b926132a9565b92610494565b9182019101906132c8565b5f80806132f1565b90680100000000000000008111613350578161334561334e93610490565b908281556132e7565b565b61061b565b61335f905161019d565b90565b61336b826109bc565b9167ffffffffffffffff83116133ce5761339961339360019261338e8686613327565b6109c9565b92610494565b9204915f5b8381106133ab5750505050565b60019060206133c16133bc86613355565b612e11565b940193818401550161339e565b61061b565b906133dd91613362565b565b9190613400826133f96133f3610100613189565b9161019d565b11156131fe565b61341d826134176134116001611188565b9161019d565b11612c3d565b61342983828491613aec565b61345861344061343b60038490610466565b610490565b61345261344c5f61103f565b9161019d565b14613280565b61347561346484611b9a565b61347060038490610466565b6133d3565b929091926134ca6134b86134b26134ac7fab3760c3bd2bb38b5bcf54dc79802ed67338b4cf29f3054ded67ed24661e41779461045a565b94610fcd565b9461045a565b946134c1610151565b918291826101fd565b0390a4565b906134d990610fcd565b5f5260205260405f2090565b906134ef90610fcd565b5f5260205260405f2090565b60ff1690565b61350d61351291610fef565b6134fb565b90565b61351f9054613501565b90565b6135479161353d61354292613535611901565b5060016134cf565b6134e5565b613515565b90565b94939192909261355861385b565b8661356b6135658361016e565b9161016e565b1415806135a9575b613589575061358794959390919293613c9e565b565b86906135a55f92839263711bec9160e11b845260048401611aa0565b0390fd5b506135be6135b8888390613522565b156103d1565b613573565b90565b6135d26135d791610277565b6135c3565b9052565b90565b6135ea6135ef9161019d565b6135db565b9052565b60209392613612858361360a829561361a976135c6565b0180926135c6565b0180926135de565b0190565b60200190565b5190565b9061364f61365e926136386127b3565b509193613643610151565b948593602085016135f3565b6020820181038252038261062f565b61367061366a82613624565b9161361e565b2090565b60601b90565b61368390613674565b90565b61368f9061367a565b90565b61369e6136a39161139a565b613686565b9052565b6014816136ba6136c29360209695613692565b0180926135c6565b0190565b6136d26136d791610fef565b610f73565b90565b90613711613729926136ea610f6c565b506137026136f6610151565b938492602084016136a7565b6020820181038252038261062f565b61372361371d82613624565b9161361e565b206136c6565b90565b61374061373b6137459261103c565b610f70565b610163565b90565b6137519061372c565b90565b908161377061376a6137655f613748565b61016e565b9161016e565b1461379e5761379c9261378291613d49565b61378b5f613748565b91909161379661138f565b93613d80565b565b6137c06137aa5f613748565b5f918291626a0d4560e21b835260048301611fc9565b0390fd5b919290826137e26137dc6137d75f613748565b61016e565b9161016e565b1461380a57613808936137f491613d49565b906137fe5f613748565b9390919293613d80565b565b61382d6138165f613748565b5f918291632bfa23e760e11b835260048301611fc9565b0390fd5b613839611901565b5061385361384d6301ffc9a760e01b610384565b91610384565b1490565b5f90565b613863613857565b503390565b93919290928361388861388261387d5f613748565b61016e565b9161016e565b146138e357846138a86138a261389d5f613748565b61016e565b9161016e565b146138bd576138bb949390919293613d80565b565b6138df6138c95f613748565b5f918291626a0d4560e21b835260048301611fc9565b0390fd5b6139066138ef5f613748565b5f918291632bfa23e760e11b835260048301611fc9565b0390fd5b9060208091613917613857565b50029101015190565b906020809161392d610f6c565b50029101015190565b9291602061395261395a9360408701908782035f89015261059d565b9401906101f0565b565b9061399761399c9261398861396f610151565b938492600460208501632d839cb360e21b815201613936565b6020820181038252038261062f565b613e3c565b565b6139c96139d86139dd926139b0610151565b92839160046020840163104c13eb60e21b8152016105ce565b6020820181038252038261062f565b613e3c565b565b929160206139fb613a039360408701908782035f89015261059d565b9401906113d9565b565b90613a40613a4592613a31613a18610151565b93849260046020850163319af33360e01b8152016139df565b6020820181038252038261062f565b613e3c565b565b9192909282613a66613a60613a5b5f613748565b61016e565b9161016e565b14613a8457613a8293613a785f613748565b9390919293613d80565b565b613aa7613a905f613748565b5f918291632bfa23e760e11b835260048301611fc9565b0390fd5b613ab7613abc9161016e565b613686565b9052565b60209392613ae0601483613ad88895613ae897613aab565b0180926135c6565b0180926135de565b0190565b90613b13613b2292613afc6127b3565b509193613b07610151565b94859360208501613ac0565b6020820181038252038261062f565b613b34613b2e82613624565b9161361e565b2090565b919082613b55613b4f613b4a5f613748565b61016e565b9161016e565b14613b7b57613b799291613b685f613748565b919091613b7361138f565b93613d80565b565b613b9d613b875f613748565b5f918291626a0d4560e21b835260048301611fc9565b0390fd5b90613bad60ff91611328565b9181191691161790565b613bc0906103d1565b90565b90565b90613bdb613bd6613be292613bb7565b613bc3565b8254613ba1565b9055565b91909182613c04613bfe613bf95f613748565b61016e565b9161016e565b14613c7857613c2882613c23613c1c600185906134cf565b86906134e5565b613bc6565b919091613c73613c61613c5b7f17307eab39ab6107e8899845ad3d59bd9653f200f220920489ca2b5937696c3193610fcd565b93610fcd565b93613c6a610151565b918291826103e3565b0390a3565b613c9a613c845f613748565b5f91829162ced3e160e81b835260048301611fc9565b0390fd5b9092939183613cbd613cb7613cb25f613748565b61016e565b9161016e565b14613d225781613cdd613cd7613cd25f613748565b61016e565b9161016e565b14613cfc57613cfa94613cef91613d49565b919390919293613d80565b565b613d1e613d085f613748565b5f918291626a0d4560e21b835260048301611fc9565b0390fd5b613d45613d2e5f613748565b5f918291632bfa23e760e11b835260048301611fc9565b0390fd5b91613d52611b52565b50613d5b611b52565b5060405192600184526020840152604083019160018352602083015260408201604052565b92939193613d92848387908492613ec8565b81613dad613da7613da25f613748565b61016e565b9161016e565b03613dba575b5050505050565b613dc261385b565b91613dcc866109bc565b613ddf613dd96001611188565b9161019d565b145f14613e2657613e0f613dff613e1b97613df95f61103f565b90613920565b92613e095f61103f565b90613920565b92949091929394614474565b5b5f80808080613db3565b613e379591929490919293946142c4565b613e1c565b613e4f90613e4a60016145fd565b61461d565b565b613e86613e8d94613e7c606094989795613e72608086019a5f8701906113d9565b60208501906101f0565b60408301906101f0565b01906101f0565b565b90613e9a910361019d565b90565b9091613eb7613ec59360408401908482035f8601526109f3565b9160208184039101526109f3565b90565b93929091613ed5816109bc565b613eef613ee9613ee4856109bc565b61019d565b9161019d565b0361416a57613efc61385b565b93613f065f61103f565b5b80613f22613f1c613f17866109bc565b61019d565b9161019d565b101561406057613f33838290613920565b613f3e858390613920565b9088613f5a613f54613f4f5f613748565b61016e565b9161016e565b03613fca575b90613f8e929187613f81613f7b613f765f613748565b61016e565b9161016e565b03613f93575b5050611208565b613f07565b613fbd613fae613fa7613fc394935f610f8f565b8a90610fd9565b91613fb883611008565b6112bf565b90612ece565b5f80613f87565b613fe7613fe2613fdb5f8490610f8f565b8b90610fd9565b611008565b80613ffa613ff48561019d565b9161019d565b10614036579061402d614013613f8e9594938490613e8f565b6140286140215f8590610f8f565b8d90610fd9565b612ece565b90919250613f60565b9061405c908a9293614046610151565b9485946303dee4c560e01b865260048601613e51565b0390fd5b50949092919261406f816109bc565b61408261407c6001611188565b9161019d565b145f1461410b5761409f6140af916140995f61103f565b90613920565b936140a95f61103f565b90613920565b93909192936140f06140ea6140e47fc3d58168c5ae7397731d063d5bbf3d657854427343f4c083240f7aacaa2d0f6294610fcd565b94610fcd565b94610fcd565b946141056140fc610151565b92839283611b5b565b0390a45b565b92939091929361414d6141476141417f4a39dc06d4c0dbc64b70af90fd698a233a518aa5d07e595d983b8c0526c8f7fb94610fcd565b94610fcd565b94610fcd565b94614162614159610151565b92839283613e9d565b0390a4614109565b61417661417c916109bc565b916109bc565b906141975f928392635b05999160e01b845260048401611b5b565b0390fd5b6141a490610fa5565b90565b6141b09061419b565b90565b6141bc90610fc1565b90565b905051906141cc82610390565b565b906020828203126141e7576141e4915f016141bf565b90565b61015b565b60209181520190565b61421461421d6020936142229361420b81613624565b938480936141ec565b95869101610588565b610593565b0190565b93906142609061427c969461425361426e9561424960a08a01945f8b01906113d9565b60208901906113d9565b86820360408801526109f3565b9084820360608601526109f3565b9160808184039101526141f5565b90565b9061429161428c83610708565b610658565b918252565b606090565b3d5f146142b6576142ab3d61427f565b903d5f602084013e5b565b6142be614296565b906142b4565b94909194939293853b6142df6142d95f61103f565b9161019d565b116142ed575b505050505050565b5f614329916143346020966143096143048b6141a7565b6141b3565b9563bc197c8193979991909161431d610151565b9a8b998a9889976113a6565b875260048701614226565b03925af180915f926143f3575b50155f146143b05750600161435d57505b5f80808080806142e5565b61436561429b565b9061436f82613624565b61438161437b5f61103f565b9161019d565b145f146143a7576143a3905f918291632bfa23e760e11b835260048301611fc9565b0390fd5b50805190602001fd5b6143c96143c363bc197c8160e01b610384565b91610384565b036143d45750614352565b6143ef905f918291632bfa23e760e11b835260048301611fc9565b0390fd5b61441591925060203d811161441c575b61440d818361062f565b8101906141ce565b905f614341565b503d614403565b919361445a6144719694614450614464949761444660a08801995f8901906113d9565b60208701906113d9565b60408501906101f0565b60608301906101f0565b60808184039101526141f5565b90565b94909194939293853b61448f6144895f61103f565b9161019d565b1161449d575b505050505050565b5f6144d9916144e46020966144b96144b48b6141a7565b6141b3565b9563f23a6e619397999190916144cd610151565b9a8b998a9889976113a6565b875260048701614423565b03925af180915f926145a3575b50155f146145605750600161450d57505b5f8080808080614495565b61451561429b565b9061451f82613624565b61453161452b5f61103f565b9161019d565b145f1461455757614553905f918291632bfa23e760e11b835260048301611fc9565b0390fd5b50805190602001fd5b61457961457363f23a6e6160e01b610384565b91610384565b036145845750614502565b61459f905f918291632bfa23e760e11b835260048301611fc9565b0390fd5b6145c591925060203d81116145cc575b6145bd818361062f565b8101906141ce565b905f6144f1565b503d6145b3565b6a636f6e736f6c652e6c6f6790565b5f80916145ed6145d3565b602082519201905afa50565b5f90565b6146056145f9565b5090565b634e487b7160e01b5f52605160045260245ffd5b6001036146095761462d906145e2565b56fea2646970667358221220284cd67de289ffe1cf5b935e95181d6c2584303f4cf271ade4db15f535b5dfbf64736f6c634300081c0033",
    "linkReferences": {}
  },
  "methodIdentifiers": {
    "balanceOf(address,uint256)": "00fdd58e",
    "balanceOfBatch(address[],uint256[])": "4e1273f4",
    "getCollectionId(bytes32,bytes32,uint256)": "856296f7",
    "getConditionId(address,bytes32,uint256)": "852c6ae2",
    "getOutcomeSlotCount(bytes32)": "d42dc0c2",
    "getPositionId(address,bytes32)": "39dd7530",
    "isApprovedForAll(address,address)": "e985e9c5",
    "mergePositions(address,bytes32,bytes32,uint256[],uint256)": "9e7212ad",
    "payoutDenominator(bytes32)": "dd34de67",
    "payoutNumerators(bytes32,uint256)": "0504c814",
    "prepareCondition(address,bytes32,uint256)": "d96ee754",
    "redeemPositions(address,bytes32,bytes32,uint256[])": "01b7037c",
    "reportPayouts(bytes32,uint256[])": "c49298ac",
    "safeBatchTransferFrom(address,address,uint256[],uint256[],bytes)": "2eb2c2d6",
    "safeTransferFrom(address,address,uint256,uint256,bytes)": "f242432a",
    "setApprovalForAll(address,bool)": "a22cb465",
    "splitPosition(address,bytes32,bytes32,uint256[],uint256)": "72ce4275",
    "supportsInterface(bytes4)": "01ffc9a7",
    "uri(uint256)": "0e89341c"
  },
  "id": 51
}