{
  "abi": [
    {
      "type": "constructor",
      "inputs": [
        {
          "name": "_ctf",
          "type": "address",
          "internalType": "address"
        }
      ],
      "stateMutability": "nonpayable"
    },
    {
      "type": "function",
      "name": "ctf",
      "inputs": [],
      "outputs": [
        {
          "name": "",
          "type": "address",
          "internalType": "contract IConditionalTokens"
        }
      ],
      "stateMutability": "view"
    },
    {
      "type": "function",
      "name": "owner",
      "inputs": [],
      "outputs": [
        {
          "name": "",
          "type": "address",
          "internalType": "address"
        }
      ],
      "stateMutability": "view"
    },
    {
      "type": "function",
      "name": "renounceOwnership",
      "inputs": [],
      "outputs": [],
      "stateMutability": "nonpayable"
    },
    {
      "type": "function",
      "name": "resolveMarket",
      "inputs": [
        {
          "name": "questionId",
          "type": "bytes32",
          "internalType": "bytes32"
        },
        {
          "name": "outcome",
          "type": "uint256",
          "internalType": "uint256"
        }
      ],
      "outputs": [],
      "stateMutability": "nonpayable"
    },
    {
      "type": "function",
      "name": "resolvedMarkets",
      "inputs": [
        {
          "name": "",
          "type": "bytes32",
          "internalType": "bytes32"
        }
      ],
      "outputs": [
        {
          "name": "",
          "type": "bool",
          "internalType": "bool"
        }
      ],
      "stateMutability": "view"
    },
    {
      "type": "function",
      "name": "transferOwnership",
      "inputs": [
        {
          "name": "newOwner",
          "type": "address",
          "internalType": "address"
        }
      ],
      "outputs": [],
      "stateMutability": "nonpayable"
    },
    {
      "type": "event",
      "name": "OwnershipTransferred",
      "inputs": [
        {
          "name": "previousOwner",
          "type": "address",
          "indexed": true,
          "internalType": "address"
        },
        {
          "name": "newOwner",
          "type": "address",
          "indexed": true,
          "internalType": "address"
        }
      ],
      "anonymous": false
    },
    {
      "type": "error",
      "name": "OwnableInvalidOwner",
      "inputs": [
        {
          "name": "owner",
          "type": "address",
          "internalType": "address"
        }
      ]
    },
    {
      "type": "error",
      "name": "OwnableUnauthorizedAccount",
      "inputs": [
        {
          "name": "account",
          "type": "address",
          "internalType": "address"
        }
      ]
    }
  ],
  "bytecode": {
    "object": "0x60803460cd57601f61052a38819003918201601f19168301916001600160401b0383118484101760d15780849260209460405283398101031260cd57516001600160a01b0381169081900360cd57331560ba575f8054336001600160a01b0319821681178355604051939290916001600160a01b0316907f8be0079c531659141344cd1fd0a4f28419497f9722a3daafe3b4186f6b6457e09080a3600180546001600160a01b03191691909117905561044490816100e68239f35b631e4fbdf760e01b5f525f60045260245ffd5b5f80fd5b634e487b7160e01b5f52604160045260245ffdfe6080806040526004361015610012575f80fd5b5f905f3560e01c90816322a9339f1461038f575080635704349f14610360578063590f4cb31461016f578063715018a6146101155780638da5cb5b146100ee5763f2fde38b14610060575f80fd5b346100eb5760203660031901126100eb576004356001600160a01b038116908190036100e95761008e6103e8565b80156100d55781546001600160a01b03198116821783556001600160a01b03167f8be0079c531659141344cd1fd0a4f28419497f9722a3daafe3b4186f6b6457e08380a380f35b631e4fbdf760e01b82526004829052602482fd5b505b80fd5b50346100eb57806003193601126100eb57546040516001600160a01b039091168152602090f35b50346100eb57806003193601126100eb5761012e6103e8565b80546001600160a01b03198116825581906001600160a01b03167f8be0079c531659141344cd1fd0a4f28419497f9722a3daafe3b4186f6b6457e08280a380f35b50346102b55760403660031901126102b55760043560243561018f6103e8565b815f52600260205260ff60405f20541661031b5780158015610311575b156102da57604051906101c06060836103b2565b60028252602082019060019060403684371480156102d45760015b8351156102b95760ff168252156102cd575f5b8251600110156102b95760ff1660408301526001546001600160a01b031690813b156102b55760408051633124a62b60e21b8152600481018690526024810191909152925160448401819052839160648301915f5b81811061029c5750505091815f81819503925af180156102915761027c575b508152600260205260408120805460ff1916600117905580f35b6102899192505f906103b2565b5f905f610262565b6040513d5f823e3d90fd5b8251845286945060209384019390920191600101610243565b5f80fd5b634e487b7160e01b5f52603260045260245ffd5b60016101ee565b5f6101db565b60405162461bcd60e51b815260206004820152600f60248201526e496e76616c6964206f7574636f6d6560881b6044820152606490fd5b50600181146101ac565b60405162461bcd60e51b815260206004820152601760248201527f4d61726b657420616c7265616479207265736f6c7665640000000000000000006044820152606490fd5b346102b55760203660031901126102b5576004355f526002602052602060ff60405f2054166040519015158152f35b346102b5575f3660031901126102b5576001546001600160a01b03168152602090f35b90601f8019910116810190811067ffffffffffffffff8211176103d457604052565b634e487b7160e01b5f52604160045260245ffd5b5f546001600160a01b031633036103fb57565b63118cdaa760e01b5f523360045260245ffdfea2646970667358221220d725c294c934402e64b55272c7367028b2f92964348897f137f303aa11432eac64736f6c634300081b0033",
    "linkReferences": {}
  },
  "methodIdentifiers": {
    "ctf()": "22a9339f",
    "owner()": "8da5cb5b",
    "renounceOwnership()": "715018a6",
    "resolveMarket(bytes32,uint256)": "590f4cb3",
    "resolvedMarkets(bytes32)": "5704349f",
    "transferOwnership(address)": "f2fde38b"
  },
  "id": 49
}