{
    "abi": [
        {
            "type": "constructor",
            "inputs": [
                {
                    "name": "trustedForwarder",
                    "type": "address",
                    "internalType": "address"
                }
            ],
            "stateMutability": "nonpayable"
        },
        {
            "type": "receive",
            "stateMutability": "payable"
        },
        {
            "type": "function",
            "name": "initialize",
            "inputs": [
                {
                    "name": "user",
                    "type": "address",
                    "internalType": "address"
                }
            ],
            "outputs": [],
            "stateMutability": "nonpayable"
        },
        {
            "type": "function",
            "name": "isTrustedForwarder",
            "inputs": [
                {
                    "name": "forwarder",
                    "type": "address",
                    "internalType": "address"
                }
            ],
            "outputs": [
                {
                    "name": "",
                    "type": "bool",
                    "internalType": "bool"
                }
            ],
            "stateMutability": "view"
        },
        {
            "type": "function",
            "name": "onERC1155BatchReceived",
            "inputs": [
                {
                    "name": "",
                    "type": "address",
                    "internalType": "address"
                },
                {
                    "name": "",
                    "type": "address",
                    "internalType": "address"
                },
                {
                    "name": "",
                    "type": "uint256[]",
                    "internalType": "uint256[]"
                },
                {
                    "name": "",
                    "type": "uint256[]",
                    "internalType": "uint256[]"
                },
                {
                    "name": "",
                    "type": "bytes",
                    "internalType": "bytes"
                }
            ],
            "outputs": [
                {
                    "name": "",
                    "type": "bytes4",
                    "internalType": "bytes4"
                }
            ],
            "stateMutability": "pure"
        },
        {
            "type": "function",
            "name": "onERC1155Received",
            "inputs": [
                {
                    "name": "",
                    "type": "address",
                    "internalType": "address"
                },
                {
                    "name": "",
                    "type": "address",
                    "internalType": "address"
                },
                {
                    "name": "",
                    "type": "uint256",
                    "internalType": "uint256"
                },
                {
                    "name": "",
                    "type": "uint256",
                    "internalType": "uint256"
                },
                {
                    "name": "",
                    "type": "bytes",
                    "internalType": "bytes"
                }
            ],
            "outputs": [
                {
                    "name": "",
                    "type": "bytes4",
                    "internalType": "bytes4"
                }
            ],
            "stateMutability": "pure"
        },
        {
            "type": "function",
            "name": "onERC721Received",
            "inputs": [
                {
                    "name": "",
                    "type": "address",
                    "internalType": "address"
                },
                {
                    "name": "",
                    "type": "address",
                    "internalType": "address"
                },
                {
                    "name": "",
                    "type": "uint256",
                    "internalType": "uint256"
                },
                {
                    "name": "",
                    "type": "bytes",
                    "internalType": "bytes"
                }
            ],
            "outputs": [
                {
                    "name": "",
                    "type": "bytes4",
                    "internalType": "bytes4"
                }
            ],
            "stateMutability": "pure"
        },
        {
            "type": "function",
            "name": "owner",
            "inputs": [],
            "outputs": [
                {
                    "name": "",
                    "type": "address",
                    "internalType": "address"
                }
            ],
            "stateMutability": "view"
        },
        {
            "type": "function",
            "name": "proxy",
            "inputs": [
                {
                    "name": "calls",
                    "type": "tuple[]",
                    "internalType": "struct ProxyWalletLib.ProxyCall[]",
                    "components": [
                        {
                            "name": "typeCode",
                            "type": "uint8",
                            "internalType": "enum ProxyWalletLib.CallType"
                        },
                        {
                            "name": "to",
                            "type": "address",
                            "internalType": "address payable"
                        },
                        {
                            "name": "value",
                            "type": "uint256",
                            "internalType": "uint256"
                        },
                        {
                            "name": "data",
                            "type": "bytes",
                            "internalType": "bytes"
                        }
                    ]
                }
            ],
            "outputs": [
                {
                    "name": "returnValues",
                    "type": "bytes[]",
                    "internalType": "bytes[]"
                }
            ],
            "stateMutability": "payable"
        },
        {
            "type": "function",
            "name": "trustedForwarder",
            "inputs": [],
            "outputs": [
                {
                    "name": "",
                    "type": "address",
                    "internalType": "address"
                }
            ],
            "stateMutability": "view"
        },
        {
            "type": "event",
            "name": "ProxyExecuted",
            "inputs": [
                {
                    "name": "user",
                    "type": "address",
                    "indexed": true,
                    "internalType": "address"
                },
                {
                    "name": "target",
                    "type": "address",
                    "indexed": true,
                    "internalType": "address"
                },
                {
                    "name": "value",
                    "type": "uint256",
                    "indexed": false,
                    "internalType": "uint256"
                },
                {
                    "name": "data",
                    "type": "bytes",
                    "indexed": false,
                    "internalType": "bytes"
                }
            ],
            "anonymous": false
        }
    ],
    "bytecode": {
        "object": "0x60a034607457601f610c8d38819003918201601f19168301916001600160401b03831184841017607857808492602094604052833981010312607457516001600160a01b0381168103607457608052604051610c00908161008d8239608051818181610387015281816103d0015261082f0152f35b5f80fd5b634e487b7160e01b5f52604160045260245ffdfe6080604052600436101561001a575b3615610018575f80fd5b005b5f3560e01c8063150b7a021461009957806334ee979114610094578063572b6c051461008f5780637da0a8771461008a5780638da5cb5b14610085578063bc197c8114610080578063c4d66de81461007b5763f23a6e610361000e576105a4565b61051f565b610486565b6103ff565b6103bb565b610363565b61025a565b346100f25760803660031901126100f2576100b56004356100f6565b6100c06024356100f6565b6064356001600160401b0381116100f2576100df90369060040161017f565b50604051630a85bd0160e11b8152602090f35b5f80fd5b6001600160a01b038116036100f257565b634e487b7160e01b5f52604160045260245ffd5b60405190608082018281106001600160401b0382111761013a57604052565b610107565b6040519190601f01601f191682016001600160401b0381118382101761013a57604052565b6001600160401b03811161013a57601f01601f191660200190565b81601f820112156100f25780359061019e61019983610164565b61013f565b92828452602083830101116100f257815f926020809301838601378301015290565b6001600160401b03811161013a5760051b60200190565b805180835260209291819084018484015e5f828201840152601f01601f1916010190565b602081016020825282518091526040820191602060408360051b8301019401925f915b83831061022d57505050505090565b909192939460208061024b600193603f1986820301875289516101d7565b9701930193019193929061021e565b60203660031901126100f2576004356001600160401b0381116100f257366023820112156100f2578060040135610293610199826101c0565b916024602084848152019260051b820101903682116100f25760248101925b8284106102d5576102d16102c58661068f565b604051918291826101fb565b0390f35b83356001600160401b0381116100f2578201608060231982360301126100f2576102fd61011b565b91602482013560038110156100f2578352604482013561031c816100f6565b6020840152606482013560408401526084820135926001600160401b0384116100f25761035360209493602486953692010161017f565b60608201528152019301926102b2565b346100f25760203660031901126100f2576020600435610382816100f6565b6040517f00000000000000000000000000000000000000000000000000000000000000006001600160a01b039081169216919091148152f35b346100f2575f3660031901126100f2576040517f00000000000000000000000000000000000000000000000000000000000000006001600160a01b03168152602090f35b346100f2575f3660031901126100f2575f516020610bab5f395f51905f52546040516001600160a01b039091168152602090f35b9080601f830112156100f257813561044d610199826101c0565b9260208085848152019260051b8201019283116100f257602001905b8282106104765750505090565b8135815260209182019101610469565b346100f25760a03660031901126100f2576104a26004356100f6565b6104ad6024356100f6565b6044356001600160401b0381116100f2576104cc903690600401610433565b506064356001600160401b0381116100f2576104ec903690600401610433565b506084356001600160401b0381116100f25761050c90369060040161017f565b5060405163bc197c8160e01b8152602090f35b346100f25760203660031901126100f25760043561053c816100f6565b5f516020610bab5f395f51905f52546001600160a01b0316610569575f516020610bab5f395f51905f5255005b60405162461bcd60e51b8152602060048201526013602482015272185b1c9958591e481a5b9a5d1a585b1a5e9959606a1b6044820152606490fd5b346100f25760a03660031901126100f2576105c06004356100f6565b6105cb6024356100f6565b6084356001600160401b0381116100f2576105ea90369060040161017f565b5060405163f23a6e6160e01b8152602090f35b9061060a610199836101c0565b828152809261061b601f19916101c0565b01905f5b82811061062b57505050565b80606060208093850101520161061f565b80518210156106505760209160051b010190565b634e487b7160e01b5f52603260045260245ffd5b9060206106759281815201906101d7565b90565b6040906106759392815281602082015201906101d7565b5f516020610bab5f395f51905f52549091906001600160a01b036106b161082c565b166001600160a01b03909116036107c6576106cc82516105fd565b915f5b81518110156107c2576106eb6106e5828461063c565b51610918565b901561079a57906001916106ff828761063c565b5261070a818661063c565b5061071361082c565b6107316020610722848761063c565b5101516001600160a01b031690565b7fd15c4e7fc5914a8794701d309748dd460fd04c14303681b73b3f40e8adf5b110604061075e858861063c565b51015191606061076e868961063c565b51015190610791604051928392898060a01b031696898060a01b03169583610678565b0390a3016106cf565b6107a66107be91610a63565b60405162461bcd60e51b815291829160048301610664565b0390fd5b5050565b60405162461bcd60e51b815260206004820152601760248201527f6d7573742062652063616c6c6564206279206f776e65720000000000000000006044820152606490fd5b9190820391821161081857565b634e487b7160e01b5f52601160045260245ffd5b337f00000000000000000000000000000000000000000000000000000000000000006001600160a01b031614806108ca575b156108c6576013193601368111610818573681116100f2576106759080356bffffffffffffffffffffffff19811691360390601482106108a1575b505060601c90565b6bffffffffffffffffffffffff1960149290920360031b82901b161690505f80610899565b3390565b50601436101561085e565b600311156108df57565b634e487b7160e01b5f52602160045260245ffd5b3d15610913573d9061090761019983610164565b9182523d5f602084013e565b606090565b5f606060028351610928816108d5565b610931816108d5565b0361097757505060208101515f91829160609061095e906001600160a01b03165b6001600160a01b031690565b91015190602082519201905af46109736108f3565b9091565b9160018194929451610988816108d5565b610991816108d5565b146109995750565b60208101519193505f925082916109b8906001600160a01b0316610952565b6060604083015192015191602083519301915af16109736108f3565b6109de604061013f565b90601d82527f636170747572656420656d70747920726576657274206d6573736167650000006020830152565b6020818303126100f2578051906001600160401b0382116100f2570181601f820112156100f257805190610a4161019983610164565b92828452602083830101116100f257815f9260208093018386015e8301015290565b805115610ad857610aad906004610a78610b10565b50815160048110610ad0575b81610a8e9161080b565b602082610a99610b10565b940101835260208301526040820152610b3e565b805115610ac7578060208061067593518301019101610a0b565b506106756109d4565b905080610a84565b50610ae3604061013f565b601c81527f636170747572656420656d707479207265766572742062756666657200000000602082015290565b60405190606082018281106001600160401b0382111761013a576040525f6040838281528260208201520152565b906020820151610b5061019982610164565b818152610b5c82610164565b602082019190601f1901368337935190915b6020811015610b935760015f199160200360031b1b0190818351169119905116179052565b8151835260209283019290910190601f1901610b6e56fefbb5f4f58e0fa88efd8478ccea97a1e88b42489737b9b4c93a6c5a1c7ad68519a264697066735822122007217b0368138aee19c19ba44509ac7537cb201f4f68bd58786c480b0d64629464736f6c634300081b0033",
        "linkReferences": {}
    },
    "methodIdentifiers": {
        "initialize(address)": "c4d66de8",
        "isTrustedForwarder(address)": "572b6c05",
        "onERC1155BatchReceived(address,address,uint256[],uint256[],bytes)": "bc197c81",
        "onERC1155Received(address,address,uint256,uint256,bytes)": "f23a6e61",
        "onERC721Received(address,address,uint256,bytes)": "150b7a02",
        "owner()": "8da5cb5b",
        "proxy((uint8,address,uint256,bytes)[])": "34ee9791",
        "trustedForwarder()": "7da0a877"
    },
    "id": 69
}